PRO02016PV044785MN011.4 D ONE PACK LANE                                  BERNR GO05NR00N                           2005-07-012900-12-3100?0000000NR00000000000000000NR?0?NR?000000000000000000000000000000000000??????? ?000000000000001900-01-01?021600000000001900-01-01?0000000000000000001900-01-010000000000000000001900-01-0230L M NR 1900-01-01NR 1900-01-0113E     0000000000000O2005-12-02N 1900-01-010000
PRO02017PV044786CI411.6 16V COLLECTION                                   MSPNR ES07NR00N                           2005-01-012900-12-3100?0000000NR00000000000000000NR?0?NR?000000000000000000000000000000000000??????? ?000000000000001900-01-01?020450000000001900-01-01?0000000000000000001900-01-010000000000000000001900-01-0231N O NR 1900-01-01NR 1900-01-0113C     0000000000000O2005-12-02N 1900-01-010000
PRO02019PV044788MI152.0 TURBO                                            BRKNR GO13NR00N                           2005-04-012900-12-3100?0000000NR00000000000000000NR?0?NR?000000000000000000000000000000000000??????? ?000000000000001900-01-01?029990000000001900-01-01?0000000000000000001900-01-010000000000000000001900-01-0233N P NR 1900-01-01NR 1900-01-0115G     0000000000000O2005-12-02N 1900-01-010000
VECCI22002000001CI22BASE                                                 BERCARES04VP05NRBRD                       1979-01-011982-12-3104?0652125AV02603600000510000TRM4IDTN000000000000000000000000071010350000????N?? ?004421000290001982-06-01?003201000210001979-01-01?0000000000000000001900-01-010000000000000000001900-01-0124A F NR 1900-01-01NR 1900-01-0107A0193 0000000000000N2022-06-01N 1900-01-010000
VECPE15048000002PE15GL                                                   BRKCARES11VP05N551D11                     1982-01-011983-12-3104?1971152AV06008200001550000PRM4RDTO000000000000000000000000127019750000??????? ?010214000670001983-02-01?008994000590001982-01-01?0000000000000000001900-01-010000000000000000001900-01-0129H K NR 1900-01-01NR 1900-01-0112B1512 0000000000000N2022-06-01N 1900-01-010000
VECPE06027000003PE06ZS                                                   CPECARES07VP05N104C37                     1982-01-011982-12-3104?1360156AV05307200001050000TRM5IDTO000000000000000000000000080011200000??????? ?006708000440001982-10-01?005946000390001982-01-01?0000000000000000001900-01-010000000000000000001900-01-0127E J NR 1900-01-01NR 1900-01-0110B0591 0000000000000N2022-06-01N 1900-01-010000
