PRO02016PV044785MN011.4 D ONE PACK LANE                                  BERNR GO05NR00N                           2005-07-012900-12-3100?0000000NR00000000000000000NR?0?NR?000000000000000000000000000000000000??????? ?000000000000001900-01-01?021600000000001900-01-01?0000000000000000001900-01-010000000000000000001900-01-0230L M NR 1900-01-01NR 1900-01-0113E     0000000000000O2005-12-02N 1900-01-010000
PRO02017PV044786CI411.6 16V COLLECTION                                   MSPNR ES07NR00N                           2005-01-012900-12-3100?0000000NR00000000000000000NR?0?NR?000000000000000000000000000000000000??????? ?000000000000001900-01-01?020450000000001900-01-01?0000000000000000001900-01-010000000000000000001900-01-0231N O NR 1900-01-01NR 1900-01-0113C     0000000000000O2005-12-02N 1900-01-010000
PRO02019PV044788MI152.0 TURBO                                            BRKNR GO13NR00N                           2005-04-012900-12-3100?0000000NR00000000000000000NR?0?NR?000000000000000000000000000000000000??????? ?000000000000001900-01-01?029990000000001900-01-01?0000000000000000001900-01-010000000000000000001900-01-0233N P NR 1900-01-01NR 1900-01-0115G     0000000000000O2005-12-02N 1900-01-010000
VECCI22002000001CI22BASE                                                 BERCARES04VP05NRBRD                       1979-01-011982-12-3104?0652125AV02603600000510000TRM4IDTN000000000000000000000000071010350000????N?? ?004421000290001982-06-01?003201000210001979-01-01?0000000000000000001900-01-010000000000000000001900-01-0124A F NR 1900-01-01NR 1900-01-0107A0193 0000000000000N2022-06-01N 1900-01-010000
VECPE15048000002PE15GL                                                   BRKCARES11VP05N551D11                     1982-01-011983-12-3104?1971152AV06008200001550000PRM4RDTO000000000000000000000000127019750000??????? ?010214000670001983-02-01?008994000590001982-01-01?0000000000000000001900-01-010000000000000000001900-01-0129H K NR 1900-01-01NR 1900-01-0112B1512 0000000000000N2022-06-01N 1900-01-010000
VECPE06027000003PE06ZS                                                   CPECARES07VP05N104C37                     1982-01-011982-12-3104?1360156AV05307200001050000TRM5IDTO000000000000000000000000080011200000??????? ?006708000440001982-10-01?005946000390001982-01-01?0000000000000000001900-01-010000000000000000001900-01-0127E J NR 1900-01-01NR 1900-01-0110B0591 0000000000000N2022-06-01N 1900-01-010000
VECTA03007000342TA03                                                     CABCARES06VP05N51E632                     1982-01-011984-12-3104?0000160AV05307200001050000TRM5IDTO000000000000000000000000085011700000??????? ?009909000650001984-03-01?008690000570001982-01-01?0000000000000000001900-01-010000000000000000001900-01-0128G J NR 1900-01-01NR 1900-01-0110C0792 0000000000000N2022-06-01N 1900-01-010000
VECAU06039000343AU06CS                                                   BERCARES12VP05N43WB3                      1982-01-011982-12-3105?2144175AV08511500001660000TRA3SDTO000000000000000000000000117016100000????O?N ?011586000760001982-03-30?011586000760001982-01-01?0000000000000000001900-01-010000000000000000001900-01-0131J J NR 1900-01-01NR 1900-01-0113C2039 0000000000000N2022-06-01N 1900-01-010000
VECAU06006000344AU06S                                                    CPECARES11VP05N100S                       1971-01-011976-12-3104?1871175AV08211200001630000TRM4RDTO000000000000000000000000110014500000????O?? ?007013000460001976-01-01?004421000290001971-01-01?0000000000000000001900-01-010000000000000000001900-01-0130K K NR 1900-01-01NR 1900-01-0112C2020 0000000000000N2022-06-01N 1900-01-010000
VECAU06043000345AU06GL 5S                                                BERCARES12VP05N43WB1                      1979-01-011980-12-3105?2144181AV08511500001660000TRM5SDTO000000000000000000000000117016300000????O?? ?009147000600001980-04-01?007775000510001979-01-01?0000000000000000001900-01-010000000000000000001900-01-0131J J NR 1900-01-01NR 1900-01-0113D2040 0000000000000N2022-06-01N 1900-01-010000
VECAU06022000346AU06GL 5E                                                BERINJES09VP05N43WC2                      1981-01-011982-12-3105?2144188AV10013600001850000TRM5SDTO000000000000000000000000121017000000????O?? ?012348000810001982-01-01?009741000639001981-01-01?0000000000000000001900-01-010000000000000000001900-01-0132K K NR 1900-01-01NR 1900-01-0114D2037 0000000000000N2022-06-01N 1900-01-010000
VECAU08003000347AU08LS                                                   BERCARES06VP04N86HB1                      1974-01-011976-12-3104?1093147AV03705000000000000TRM4SDTN000000000000000000000000000000000000??????? ?003918000257001974-01-01?003918000257001974-01-01?0000000000000000001900-01-010000000000000000001900-01-0127F H NR 1900-01-01NR 1900-01-0109B2029 0000000000000N2022-06-01N 1900-01-010000
VECAB02002000348AB02JUNIOR FL                                            BERCARES04VP05NA112B2                     1983-01-011984-12-3104?0903130AV03104200000660000TRM4IDTO000000000000000000000000065510550000????N?? ?005336000350001984-05-01?005031000330001983-01-01?0000000000000000001900-01-010000000000000000001900-01-0124B G NR 1900-01-01NR 1900-01-0108A6315 0000000000000N2022-06-01N 1900-01-010000
VECAU04001000349AU04                                                     CPECARES11VP05N                           1967-01-011977-12-3104?0000175AV08511500001670000TRA3IDDO000000000000000000000000000000000000??????? ?008690000570001977-01-01?008690000570001967-01-01?0000000000000000001900-01-010000000000000000001900-01-0131L L NR 1900-01-01NR 1900-01-0113E2035 0000000000000N2022-06-01N 1900-01-010000
VECTA02012000350TA02GL                                                   BERCARES07VP05N21A231                     1982-01-011984-12-3104?0000150AV04806500001170000TRM4IDTO000000000000000000000000000000000000??????? ?008080000530001984-03-01?006098000400001982-01-01?0000000000000000001900-01-010000000000000000001900-01-0128E J NR 1900-01-01NR 1900-01-0110A0776 0000000000000N2022-06-01N 1900-01-010000
VECAU02002000351AU025S                                                   CPECARES09VP05N85WN2                      1981-01-011983-12-3104?0000183AV08511500001540000TRM5SDTO000000000000000000000000000000000000??????? ?013568000890001983-03-01?010062000660001981-01-01?0000000000000000001900-01-010000000000000000001900-01-0132K L NR 1900-01-01NR 1900-01-0114D2044 0000000000000N2022-06-01N 1900-01-010000
VECPE14012000352PE14TI                                                   BERINJES11VP05N504A12                     1970-01-011979-12-3104?1971173AV07710400001720000PRM5IDDO000000000000000000000000123017100000????S?N ?006403000420001979-06-01?005641000370001970-01-01?0000000000000000001900-01-010000000000000000001900-01-0131H K NR 1900-01-01NR 1900-01-0112B0540 0000000000000N2022-06-01N 1900-01-010000
VECPE14005000353PE14PININFARINA                                          CPEINJES11VP05N504C12                     1981-01-011983-12-3104?1971179AV07810600001720000PRM5IDDO000000000000000000000000125015800000????S?N ?013568000890001983-04-01?012501000820001981-01-01?0000000000000000001900-01-010000000000000000001900-01-0131K M NR 1900-01-01NR 1900-01-0113D0529 0000000000000N2022-06-01N 1900-01-010000
VECAU02006000354AU025E                                                   CPEINJES11VP05N85KE2                      1982-01-011984-12-3104?0000196AV09613000001710000TRM5SDTO000000000000000000000000000000000000??????? ?017684001160001984-03-01?013873000910001982-01-01?0000000000000000001900-01-010000000000000000001900-01-0133L L NR 1900-01-01NR 1900-01-0115E2047 0000000000000N2022-06-01N 1900-01-010000
VECPE14039000355PE14PININFARINA V6                                       CPEINJES15VP05N504C32                     1981-01-011983-12-3106?2664189AV10614400002170000PRM5IDDO000000000000000000000000129516150000????S?? ?016007001050001983-04-01?014635000960001981-01-01?0000000000000000001900-01-010000000000000000001900-01-0132L N NR 1900-01-01NR 1900-01-0114D0572 0000000000000N2022-06-01N 1900-01-010000
VECAU07003000356AU075T                                                   BERINSES11VP05N43WJ2                      1980-01-011982-12-3104?2144198AV12517000002650000TRA3SDTO000000000000000000000000126017650000??????N ?016312001070001982-01-01?013568000890001980-01-01?0000000000000000001900-01-010000000000000000001900-01-0134M L NR 1900-01-01NR 1900-01-0116G2042 0000000000000N2022-06-01N 1900-01-010000
VECAU03001000357AU034X4                                                  CPEINSES10VP05N85WR2                      1981-01-011984-12-3105?2144222AV147200000028500004PM5SDTO000000000000000000000000130017600000????S?? ?044668002930001984-07-01?025154001650001981-01-01?0000000000000000001900-01-010000000000000000001900-01-0136T S NR 1900-01-01NR 1900-01-0117W2063 0000000000000N2022-06-01N 1900-01-010000
VECAR05002000358AR051,2L L                                               BERCARES07VP05N901D                       1972-01-011980-12-3104?1186150AV04606300000900000TRM4RDDO000000000000000000000000000000000000????N?? ?004719000309561980-02-01?002287000150001972-01-01?0000000000000000001900-01-010000000000000000001900-01-0128D J NR 1900-01-01NR 1900-01-0110B6028 0000000000000N2022-06-01N 1900-01-010000
VECAR05006000359AR051,2L TI                                              BERCARES07VP05N901C                       1974-01-011979-12-3104?1186160AV05006800000920000TRM4RDDO000000000000000000000000000000000000????N?? ?004421000290001979-02-01?002976000195201974-01-01?0000000000000000001900-01-010000000000000000001900-01-0129D J NR 1900-01-01NR 1900-01-0111B6032 0000000000000N2022-06-01N 1900-01-010000
VECAR05003000360AR051,3L LUXE NR                                         BERCARES06VP05N901F3C                     1982-01-011982-12-3104?1351160AV05807900001130000TRM5RDDO000000000000000000000000000000000000????N?? ?006860000450001982-10-01?006555000430001982-01-01?0000000000000000001900-01-010000000000000000001900-01-0129E J NR 1900-01-01NR 1900-01-0111B6032 0000000000000N2022-06-01N 1900-01-010000
VECAR05005000361AR051,3L SUPER NR                                        BERCARES06VP05N901F3B                     1982-01-011982-12-3104?1351160AV05807900001130000TRM5RDDO000000000000000000000000088513100000????N?? ?007013000460001982-10-01?006555000430001982-01-01?0000000000000000001900-01-010000000000000000001900-01-0128F J NR 1900-01-01NR 1900-01-0111B6032 0000000000000N2022-06-01N 1900-01-010000
VECAR05009000362AR051,3L TI                                              BERCARES07VP05N901G                       1978-01-011980-12-3104?1286169AV05607600001050000TRM4RDDO000000000000000000000000087012700000????N?? ?004393000288161980-02-01?004269000280001978-01-01?0000000000000000001900-01-010000000000000000001900-01-0129C I NR 1900-01-01NR 1900-01-0111B6032 0000000000000N2022-06-01N 1900-01-010000
VECPE15003000363PE15SRD                                                  BERINJGO09VP05N551A48                     1981-01-011982-12-3104?2304146AV05207000001290000PRM5IDTO000000000000000000000000000000000000??????? ?011434000750001982-10-01?008842000580001981-01-01?0000000000000000001900-01-010000000000000000001900-01-0129J L NR 1900-01-01NR 1900-01-0111B0588 0000000000000N2022-06-01N 1900-01-010000
VECAR05020000364AR051,3L SPRINT                                          CPECARES07VP05N902A                       1977-01-011979-12-3104?1286169AV05607600001050000TRM4RDDO000000000000000000000000089012900000????N?? ?005336000350001979-08-01?005183000340001977-01-01?0000000000000000001900-01-010000000000000000001900-01-0129F K NR 1900-01-01NR 1900-01-0112B6036 0000000000000N2022-06-01N 1900-01-010000
VECAR05012000365AR051350 SUPER                                           BERCARES07VP05N901F2                      1979-01-011980-12-3104?1351169AV05207100001130000TRM5RDDO000000000000000000000000088513100000????N?? ?005183000340001980-12-01?004573000300001979-01-01?0000000000000000001900-01-010000000000000000001900-01-0129E J NR 1900-01-01NR 1900-01-0111B6032 0000000000000N2022-06-01N 1900-01-010000
VECAR05024000366AR051,5L SPRINT                                          CPECARES08VP05N902A1                      1978-01-011980-12-3104?1490170AV06308500000130000TRM4RDDO000000000000000000000000089012900000????N?? ?007506000492361980-05-01?005336000350001978-01-01?0000000000000000001900-01-010000000000000000001900-01-0129H L NR 1900-01-01NR 1900-01-0112B6036 0000000000000N2022-06-01N 1900-01-010000
VECAR05026000367AR051,5L SUPER                                           BERCARES08VP05N901F1                      1979-01-011980-12-3104?1490168AV06308500001230000TRM5RDDO000000000000000000000000087012700000????N?? ?005279000346281980-12-01?004711000309001979-01-01?0000000000000000001900-01-010000000000000000001900-01-0129E J NR 1900-01-01NR 1900-01-0112B6036 0000000000000N2022-06-01N 1900-01-010000
VECAR05017000368AR051,5L SPRINT VELOCE N                                 CPECARES06VP05N902A5A                     1982-01-011983-12-3104?1490175AV07009500001330000TRM5RDDO000000000000000000000000091513150000????N?? ?009120000598201983-02-01?007738000507601982-01-01?0000000000000000001900-01-010000000000000000001900-01-0130G K NR 1900-01-01NR 1900-01-0112B6036 0000000000000N2022-06-01N 1900-01-010000
VECAR05029000369AR051,5L TI                                              BERCARES08VP05N901G1                      1978-01-011980-12-3104?1490170AV06308500001230000TRM5RDDO000000000000000000000000087012700000????N?? ?005488000360001980-12-01?004573000300001978-01-01?0000000000000000001900-01-010000000000000000001900-01-0129E J NR 1900-01-01NR 1900-01-0112B6036 0000000000000N2022-06-01N 1900-01-010000
VECPE15026000370PE15GLD                                                  BERINJGO09VP05N551A50                     1984-01-011984-12-3104?2498150AV05607600001530000PRM4IDTO000000000000000000000000127017250000??????? ?010976000720001983-07-01?009604000630001984-01-01?0000000000000000001900-01-010000000000000000001900-01-0128H K NR 1900-01-01NR 1900-01-0112C1505 0000000000000N2022-06-01N 1900-01-010000
VECAR05022000371AR051350 TI                                              BERCARES07VP05N901G4A                     1982-01-011982-12-3104?1351170AV06308500001180000TRM5RDDO000000000000000000000000088513100000????N?? ?007160000469681982-06-01?007104000466001982-01-01?0000000000000000001900-01-010000000000000000001900-01-0129F J NR 1900-01-01NR 1900-01-0112B6036 0000000000000N2022-06-01N 1900-01-010000
VECAR05016000372AR051,5L QUADRIFOGLIO ORO                                BERCARES06VP05N901F4D                     1983-01-011983-12-3104?1490174AV07009500001330000TRM5RDDO000000000000000000000000089513200000????N?? ?008771000575361983-12-01?007638000501001983-01-01?0000000000000000001900-01-010000000000000000001900-01-0130G K NR 1900-01-01NR 1900-01-0112B6036 0000000000000N2022-06-01N 1900-01-010000
VECAR05036000373AR051350 SPRINT                                          CPECARES05VP05N902A4A                     1983-01-011985-12-3104?1351175AV06408700001180000TRM4RDDO000000000000000000000000091513400000????N?N ?010671000700001985-01-01?009696000636001983-01-01?0000000000000000001900-01-010000000000000000001900-01-0130G K NR 1900-01-01NR 1900-01-0112C6051 0000000000000N2022-06-01N 1900-01-010000
VECAR08002000374AR081300                                                 BERCARES08VP05N11644                      1978-01-011979-12-3104?1357164AV07009500001230000PRM4RDDO000000000000000000000000110015200000????N?? ?006250000410001979-12-01?006098000400001978-01-01?0000000000000000001900-01-010000000000000000001900-01-0129H K NR 1900-01-01NR 1900-01-0112B6040 0000000000000N2022-06-01N 1900-01-010000
VECAR08008000375AR081,8L                                                 BERCARES09VP05N116A                       1979-01-011982-12-3104?1779184AV09012200001670000PRM5RDDO000000000000000000000000110015200000????N?N ?008385000550001982-06-01?006586000432001979-01-01?0000000000000000001900-01-010000000000000000001900-01-0132G K NR 1900-01-01NR 1900-01-0113C6044 0000000000000N2022-06-01N 1900-01-010000
VECPE15009000376PE15GR (DEPUIS 1.7.1983)                                 BERCARES09VP05N551A11A                    1984-01-011985-12-3104?1971168AV07410000001550000PRM4IDTO000000000000000000000000120017600000????O?? ?010824000710001985-02-01?009452000620001984-01-01?0000000000000000001900-01-010000000000000000001900-01-0130H K NR 1900-01-01NR 1900-01-0112B0589 0000000000000N2022-06-01N 1900-01-010000
VECAR08004000377AR081,6L NR                                              BERCARES06VP05N11650B                     1982-01-011983-12-3104?1570175AV08010900001420000PRM5RDDO000000000000000000000000110025100000????N?? ?009757000640001983-04-01?007318000480001982-01-01?0000000000000000001900-01-010000000000000000001900-01-0133H K NR 1900-01-01NR 1900-01-0113B6037 0000000000000N2022-06-01N 1900-01-010000
VECAR08005000378AR082L                                                   BERCARES11VP05N116A1                      1981-01-011982-12-3104?1962184AV09613000001810000PRM5RDDO000000000000000000000000152525100000????N?? ?008690000570001982-06-01?007927000520001981-01-01?0000000000000000001900-01-010000000000000000001900-01-0134H K NR 1900-01-01NR 1900-01-0114C6038 0000000000000N2022-06-01N 1900-01-010000
VECPE15015000379PE15GR                                                   BERCARES11VP05N551A13                     1981-01-011981-12-3104?1971158AV07109600001580000PRA3IDTO000000000000000000000000000000000000??????? ?008385000550001981-06-01?006860000450001981-01-01?0000000000000000001900-01-010000000000000000001900-01-0130H K NR 1900-01-01NR 1900-01-0112B0589 0000000000000N2022-06-01N 1900-01-010000
VECAR07001000380AR071,6L SUPER                                           BERCARES09VP05N10526                      1965-01-011978-12-3104?1570175AV07109700001450000PRM4RDDO000000000000000000000000106014600000????N?? ?005031000330001978-04-01?002744000180001965-01-01?0000000000000000001900-01-010000000000000000001900-01-0130G K NR 1900-01-01NR 1900-01-0112B6024 0000000000000N2022-06-01N 1900-01-010000
VECAR06012000381AR062L NR TURBO D                                        BERINSGO07VP05N116BA                      1981-01-011983-12-3104?1772160AV06008200000170000PRM5RDDO000000000000000000000000114015650000????N?? ?013111000860001983-04-01?011586000760001981-01-01?0000000000000000001900-01-010000000000000000001900-01-0129K M NR 1900-01-01NR 1900-01-0113D6041 0000000000000N2022-06-01N 1900-01-010000
VECAR06011000382AR061,6L GT                                              CPECARES09VP05N11604                      1976-01-011979-12-3104?1570180AV08010900001440000PRM5RDDO000000000000000000000000108014000000????N?N ?007165000470001979-12-01?005946000390001976-01-01?0000000000000000001900-01-010000000000000000001900-01-0131I L NR 1900-01-01NR 1900-01-0113B6034 0000000000000N2022-06-01N 1900-01-010000
VECAR06010000383AR061,6L                                                 BERCARES09VP05N11600                      1975-01-011977-12-3104?1570175AV07910800001440000PRM5RDDO000000000000000000000000106014600000????N?? ?005488000360001977-12-01?004421000290001975-01-01?0000000000000000001900-01-010000000000000000001900-01-0130H K NR 1900-01-01NR 1900-01-0113B6034 0000000000000N2022-06-01N 1900-01-010000
VECFI16003000714FI161300 SUPER MIRAFIORI                                 BRKCARES07VP05N131AT                      1978-01-011981-12-3104?0000160AV05707800001030000PRM5RDTO000000000000000000000000000000000000??????? ?005946000390001981-12-01?004421000290001978-01-01?0000000000000000001900-01-010000000000000000001900-01-0128E I NR 1900-01-01NR 1900-01-0110A6183 0000000000000N2022-06-01N 1900-01-010000
VECFI16011000715FI161400 TC SUPER MIRAFIORI                              BERCARES07VP05N131A1T                     1981-01-011983-12-3104?0000155AV05707700001130000PRM5RDTO000000000000000000000000000000000000??????? ?007775000510001983-07-01?006250000410001981-01-01?0000000000000000001900-01-010000000000000000001900-01-0129F J NR 1900-01-01NR 1900-01-0111B6413 0000000000000N2022-06-01N 1900-01-010000
VECFI16014000716FI162000 CL                                              BERINJGO08VP05N131AID9C                   1981-01-011983-12-3104?0000140AV04406000001130000PRM5RDTO000000000000000000000000000000000000??????? ?008232000540001983-07-01?006555000430001981-01-01?0000000000000000001900-01-010000000000000000001900-01-0129F J NR 1900-01-01NR 1900-01-0111B6416 0000000000000N2022-06-01N 1900-01-010000
VECFI16009000717FI162500 SUPER MIRAFIORI                                 BRKINJGO09VP05N131AZIS                    1981-01-011983-12-3104?0000150AV05307200001470000PRM5RDTO000000000000000000000000000000000000??????? ?009909000650001983-07-01?007470000490001981-01-01?0000000000000000001900-01-010000000000000000001900-01-0129H J NR 1900-01-01NR 1900-01-0111B6401 0000000000000N2022-06-01N 1900-01-010000
VECFI16010000718FI162500 SUPER MIRAFIORI                                 BERINJGO09VP05N131AZ                      1979-01-011981-12-3104?0000146AV05307200001470000PRM4RDTO000000000000000000000000000000000000??????? ?006098000400001981-04-01?005793000380001979-01-01?0000000000000000001900-01-010000000000000000001900-01-0129E I NR 1900-01-01NR 1900-01-0111B6401 0000000000000N2022-06-01N 1900-01-010000
VECFI16006000719FI161600 MIRAFIORI                                       BERCARES09VP05N131A1S                     1975-01-011978-12-3104?0000160AV05507500001240000PRM5RDTO000000000000000000000000000000000000??????? ?004421000290001978-04-01?003201000210001975-01-01?0000000000000000001900-01-010000000000000000001900-01-0129E J NR 1900-01-01NR 1900-01-0111B6184 0000000000000N2022-06-01N 1900-01-010000
VECFI16005000720FI161600 MIRAFIORI                                       BERCARES09VP05N131A1C                     1978-01-011979-12-3104?0000160AV05507500001240000PRM5RDTO000000000000000000000000000000000000??????? ?005031000330001979-10-01?004269000280001978-01-01?0000000000000000001900-01-010000000000000000001900-01-0129F J NR 1900-01-01NR 1900-01-0111B6184 0000000000000N2022-06-01N 1900-01-010000
VECFI16004000721FI161600 CL MIRAFIORI                                    BRKCARES07VP05N131AF1IIC5                 1981-01-011984-12-3104?0000160AV06308500001240000PRM5RDTO000000000000000000000000000000000000??????? ?007622000500001984-08-01?005641000370001981-01-01?0000000000000000001900-01-010000000000000000001900-01-0129E I NR 1900-01-01NR 1900-01-0111B6184 0000000000000N2022-06-01N 1900-01-010000
VECFI16007000722FI161600 TC SUPER MIRAFIORI                              BERCARES09VP05N131A1T6                    1978-01-011981-12-3104?0000175AV07109600001260000PRA3IDTO000000000000000000000000000000000000??????? ?006555000430001981-12-01?004573000300001978-01-01?0000000000000000001900-01-010000000000000000001900-01-0130F J NR 1900-01-01NR 1900-01-0112B6188 0000000000000N2022-06-01N 1900-01-010000
VECFI16012000723FI162000 TC SUPER MIRAFIORI                              BERCARES09VP05N131A2                      1981-01-011983-12-3104?0000175AV08311300001670000PRM5RDTO000000000000000000000000000000000000??????? ?008537000560001983-07-01?007165000470001981-01-01?0000000000000000001900-01-010000000000000000001900-01-0131G J NR 1900-01-01NR 1900-01-0113B6414 0000000000000N2022-06-01N 1900-01-010000
VECVW04043000724VW04RABBIT JUNIOR D                                      BERINJGO06VP05N17CR1                      1984-01-011984-12-3104?1588143AV04005400001020000TRM4SDTO000000000000000000000000000000000000??????? ?008537000560001984-01-01?008537000560001984-01-01?0000000000000000001900-01-010000000000000000001900-01-0128F I NR 1900-01-01NR 1900-01-0110B2775 0000000000000N2022-06-01N 1900-01-010000
VECFI16008000725FI162000 TC RACING                                       BERCARES11VP05N131AK                      1979-01-011982-12-3104?0000186AV08511500000170000PRM5RDTO000000000000000000000000000000000000??????? ?007013000460001982-02-01?005793000380001979-01-01?0000000000000000001900-01-010000000000000000001900-01-0132F J NR 1900-01-01NR 1900-01-0114B6197 0000000000000N2022-06-01N 1900-01-010000
VECVW04042000726VW04RABBIT JUNIOR D                                      BERINJGO05VP05N17CR2                      1984-01-011984-12-3104?1588143AV04005400001020000TRM5SDTO000000000000000000000000084512800000????N?? ?008842000580001984-01-01?008842000580001984-01-01?0000000000000000001900-01-010000000000000000001900-01-0126F I NR 1900-01-01NR 1900-01-0110B2775 0000000000000N2022-06-01N 1900-01-010000
VECVW04020000727VW04RABBIT                                               BERCARES06VP05N17JB2                      1984-01-011984-12-3104?1457159AV05207000000110000TRM5SDTO000000000000000000000000000000000000??????? ?007775000510001984-01-01?007775000510001984-01-01?0000000000000000001900-01-010000000000000000001900-01-0129E I NR 1900-01-01NR 1900-01-0111B2754 0000000000000N2022-06-01N 1900-01-010000
VECFI01003000728FI012500 D                                               BERINJGO09VP05N132AID                     1982-01-011983-12-3104?0000150AV05307200000150000PRM5RDTO000000000000000000000000000000000000??????? ?010519000690001983-07-01?008994000590001982-01-01?0000000000000000001900-01-010000000000000000001900-01-0130I K NR 1900-01-01NR 1900-01-0112C6198 0000000000000N2022-06-01N 1900-01-010000
VECFI17001000729FI171600                                                 BERCARES09VP05N132A                       1972-01-011974-12-3104?0000165AV07209800000000000PRM5RDDO000000000000000000000000000000000000??????? ?002592000170001974-04-01?002439000160001972-01-01?0000000000000000001900-01-010000000000000000001900-01-0130E I NR 1900-01-01NR 1900-01-0112B6171 0000000000000N2022-06-01N 1900-01-010000
VECFI17002000730FI171600 GLS                                             BERCARES09VP05N132AIIIS5                  1977-01-011981-12-3104?0000165AV07209800001340000PRM4RDTO000000000000000000000000000000000000??????? ?006555000430001981-08-01?005031000330001977-01-01?0000000000000000001900-01-010000000000000000001900-01-0130F J NR 1900-01-01NR 1900-01-0112B6171 0000000000000N2022-06-01N 1900-01-010000
VECFI01002000731FI011600                                                 BERCARES08VP05N132AIV                     1982-01-011983-12-3104?0000165AV07209800001340000PRM5RDTO000000000000000000000000000000000000??????? ?008385000550001983-07-01?007165000470001982-01-01?0000000000000000001900-01-010000000000000000001900-01-0130G J NR 1900-01-01NR 1900-01-0112B6171 0000000000000N2022-06-01N 1900-01-010000
VECFI17003000732FI171800 S                                               BERCARES10VP05N132A1S                     1972-01-011974-12-3104?0000170AV07910700000000000PRM5RDDO000000000000000000000000000000000000??????? ?002744000180001974-05-01?002439000160001972-01-01?0000000000000000001900-01-010000000000000000001900-01-0130E I NR 1900-01-01NR 1900-01-0112B6171 0000000000000N2022-06-01N 1900-01-010000
VECFI17004000733FI171800 GLS                                             BERCARES10VP05N132AIIIS                   1974-01-011977-12-3104?0000175AV07910700000000000PRM5RDDO000000000000000000000000000000000000??????? ?005183000340001977-08-01?003506000230001974-01-01?0000000000000000001900-01-010000000000000000001900-01-0131H J NR 1900-01-01NR 1900-01-0113B6182 0000000000000N2022-06-01N 1900-01-010000
VECFI17005000734FI172000 GLS                                             BERCARES11VP05N132A2S5                    1977-01-011982-12-3104?0000170AV08211200001610000PRM5RDTO000000000000000000000000000000000000??????? ?007013000460001982-02-01?005641000370001977-01-01?0000000000000000001900-01-010000000000000000001900-01-0131F J NR 1900-01-01NR 1900-01-0113B6185 0000000000000N2022-06-01N 1900-01-010000
VECFI17007000735FI172000                                                 BERINJES11VP05N132A2S51                   1980-01-011982-12-3104?0000180AV09012200001750000PRM5RDTO000000000000000000000000000000000000??????? ?007622000500001982-02-01?007318000480001980-01-01?0000000000000000001900-01-010000000000000000001900-01-0132F J NR 1900-01-01NR 1900-01-0114C6404 0000000000000N2022-06-01N 1900-01-010000
VECFI01007000736FI012000 I                                               BERINJES10VP05N132A36                     1982-01-011983-12-3104?0000170AV09012200001750000PRA3RDTO000000000000000000000000000000000000??????? ?010062000660001983-07-01?008690000570001982-01-01?0000000000000000001900-01-010000000000000000001900-01-0132H J NR 1900-01-01NR 1900-01-0114C6404 0000000000000N2022-06-01N 1900-01-010000
VECFI11001000737FI111300                                                 CPECARES07VP05N128AS                      1973-01-011979-12-3104?0000170AV05507500000000000PRM5IDTO000000000000000000000000000000000000??????? ?005641000370001979-04-01?005031000330001973-01-01?0000000000000000001900-01-010000000000000000001900-01-0130G K NR 1900-01-01NR 1900-01-0112C6178 0000000000000N2022-06-01N 1900-01-010000
VECOP15013000738OP153000E C                                              BERINJES16VP05NAVN4                       1983-01-011984-12-3104?0000215AV13218000002480000PRM5IDDO000000000000000000000000000000000000??????? ?019971001310001984-09-01?017532001150001983-01-01?0000000000000000001900-01-010000000000000000001900-01-0134M N NR 1900-01-01NR 1900-01-0116G2590 0000000000000N2022-06-01N 1900-01-010000
VECOP15004000739OP152500E C                                              BERINJES12VP05NAVJ4                       1983-01-011984-12-3104?0000196AV10013600001860000PRM5IDDO000000000000000000000000000000000000??????? ?015550001020001984-08-01?014635000960001983-01-01?0000000000000000001900-01-010000000000000000001900-01-0133K M NR 1900-01-01NR 1900-01-0115G2589 0000000000000N2022-06-01N 1900-01-010000
VECOP15010000740OP152800H                                                BERCARES15VP05N1VK529                     1979-01-011980-12-3104?0000201AV10314000002180000PRA4IDDO000000000000000000000000000000000000??????? ?011739000770001980-01-01?011739000770001979-01-01?0000000000000000001900-01-010000000000000000001900-01-0133L M NR 1900-01-01NR 1900-01-0115G2589 0000000000000N2022-06-01N 1900-01-010000
VECOP05002000741OP052500E                                                BRKINJES12VP05N3VJ8                       1982-01-019999-12-3104?0000187AV09613000001850000PRM4RDTO000000000000000000000000000000000000??????? ?152297009990001900-01-01?011129000730001982-01-01?0000000000000000001900-01-010000000000000000001900-01-0131F J NR 1900-01-01NR 1900-01-0113D2524 0000000000000N2022-06-01N 1900-01-010000
VECOP05010000742OP052500S                                                BERCARES14VP05N1VH                        1979-01-019999-12-3104?0000188AV08511500000000000PRM4RDTO000000000000000000000000000000000000??????? ?152297009990001900-01-01?152297009990001979-01-01?0000000000000000001900-01-010000000000000000001900-01-0131A H NR 1900-01-01NR 1900-01-0113D2524 0000000000000N2022-06-01N 1900-01-010000
VECOP05003000743OP052500E                                                BERINJES12VP05N1VJ8                       1982-01-019999-12-3104?0000190AV09613000001850000PRM4RDTO000000000000000000000000000000000000??????? ?152297009990001900-01-01?010214000670001982-01-01?0000000000000000001900-01-010000000000000000001900-01-0131F J NR 1900-01-01NR 1900-01-0113D2524 0000000000000N2022-06-01N 1900-01-010000
VECOP05001000744OP052500 S BERLINA                                       BERCARES12VP05N2500S                      1969-01-011982-12-3104?0000175AV08511500000000000PRM4RDTO000000000000000000000000000000000000??????? ?152297009990001900-01-01?002744000180001969-01-01?0000000000000000001900-01-010000000000000000001900-01-0131A H NR 1900-01-01NR 1900-01-0113D2524 0000000000000N2022-06-01N 1900-01-010000
VECOP05004000745OP052500S BERLINA                                        BERCARES12VP05N1VH9                       1981-01-019999-12-3104?0000180AV08511500000000000PRM4RDTO000000000000000000000000000000000000??????? ?152297009990001900-01-01?009101000597001981-01-01?0000000000000000001900-01-010000000000000000001900-01-0131E J NR 1900-01-01NR 1900-01-0113D2524 0000000000000N2022-06-01N 1900-01-010000
VECOP14029000746OP142000S LS                                             BRKCARES11VP05N3VB                        1978-01-019999-12-3104?0000164AV07410000001580000PRM4RDTO000000000000000000000000000000000000??????? ?152297009990001900-01-01?005717000375001978-01-01?0000000000000000001900-01-010000000000000000001900-01-0130A H NR 1900-01-01NR 1900-01-0112B2580 0000000000000N2022-06-01N 1900-01-010000
VECOP14019000747OP142000S GL                                             BERCARES08VP05N1VB9                       1981-01-019999-12-3104?0000173AV07410000000000000PRM4RDTO000000000000000000000000000000000000??????? ?152297009990001900-01-01?006708000440001981-01-01?0000000000000000001900-01-010000000000000000001900-01-0130B I NR 1900-01-01NR 1900-01-0112B2580 0000000000000N2022-06-01N 1900-01-010000
VECOP14022000748OP142000S BERLINA                                        BERCARES11VP05N1VB                        1978-01-019999-12-3104?0000164AV07410000000000000PRM4RDTO000000000000000000000000000000000000??????? ?152297009990001900-01-01?152297009990001978-01-01?0000000000000000001900-01-010000000000000000001900-01-0130A H NR 1900-01-01NR 1900-01-0112B2580 0000000000000N2022-06-01N 1900-01-010000
VECOP14009000749OP142000E GLS                                            BRKINJES11VP05N3VC8                       1978-01-019999-12-3104?1978169AV08111000001580000PRM4RDTO000000000000000000000000000000000000????N?? ?152297009990001900-01-01?152297009990001978-01-01?0000000000000000001900-01-010000000000000000001900-01-0131A H NR 1900-01-01NR 1900-01-0113C2577 0000000000000N2022-06-01N 1900-01-010000
VECOP14010000750OP142000E GLS                                            BERINJES11VP05N1VC8                       1978-01-019999-12-3104?1978169AV08111000001620000PRM4RDTO000000000000000000000000110016000000????N?? ?152297009990001900-01-01?006708000440001978-01-01?0000000000000000001900-01-010000000000000000001900-01-0130C I NR 1900-01-01NR 1900-01-0113C2577 0000000000000N2022-06-01N 1900-01-010000
VECOP14006000751OP142000E BERLINA                                        BERINJES11VP05N1VC                        1978-01-019999-12-3104?0000169AV08111000001620000PRM4RDTO000000000000000000000000000000000000??????? ?152297009990001900-01-01?007318000480001978-01-01?0000000000000000001900-01-010000000000000000001900-01-0131C I NR 1900-01-01NR 1900-01-0113C2577 0000000000000N2022-06-01N 1900-01-010000
VECOP14005000752OP142100D L                                              BRKINJGO08VP05N3VE                        1978-01-019999-12-3104?0000131AV04406000000120000PRM4RDTO000000000000000000000000000000000000??????? ?152297009990001900-01-01?005702000374001978-01-01?0000000000000000001900-01-010000000000000000001900-01-0129A H NR 1900-01-01NR 1900-01-0111C2569 0000000000000N2022-06-01N 1900-01-010000
VECOP14042000753OP142300D L                                              BRKINJGO09VP05N3VF                        1979-01-011980-12-3104?0000149AV04806500001270000PRA3RDTO000000000000000000000000000000000000??????? ?007241000475001980-06-01?007241000475001979-01-01?0000000000000000001900-01-010000000000000000001900-01-0130H K NR 1900-01-01NR 1900-01-0112C2594 0000000000000N2022-06-01N 1900-01-010000
VECOP14001000754OP141500                                                 BRKCARES09VP05NC15                        1962-01-011970-12-3104?0000133AV04305800000000000PRM4RDTO000000000000000000000000000000000000??????? ?152297009990001900-01-01?152297009990001962-01-01?0000000000000000001900-01-010000000000000000001900-01-0128A I NR 1900-01-01NR 1900-01-0110B2503 0000000000000N2022-06-01N 1900-01-010000
VECOP14002000755OP141700N                                                BRKCARES10VP05NC17                        1968-01-011975-12-3104?0000140AV04606300000000000PRM4RDTO000000000000000000000000000000000000??????? ?002089000137001970-06-01?002089000137001968-01-01?0000000000000000001900-01-010000000000000000001900-01-0129A I NR 1900-01-01NR 1900-01-0111B2565 0000000000000N2022-06-01N 1900-01-010000
VECPE07015000756PE07GL                                                   BERCARES04VP05N741A11                     1983-01-011987-12-3104?1124142AV03705000000840000TRM4IDTN000000000000000000000000074011950000??????? ?008232000540001987-05-01?006098000400001983-01-01?0026790000970003532022-01-040013080000610001572000-04-0126D L NR 1900-01-01NR 1900-01-0109A1523 0000000000000N2022-06-01N 1900-01-010000
VECPO04005000757PO04TURBO INJECTION                                      CPEINSES09VP05N924937                     1981-01-011981-12-3104?0000241AV15521000000280000PRM5IDDO000000000000000000000000000000000000??????? ?031100002040001981-06-01?031100002040001981-01-01?0000000000000000001900-01-010000000000000000001900-01-0134S S NR 1900-01-01NR 1900-01-0116X2622 0000000000000N2022-06-01N 1900-01-010000
VECOP14003000758OP141900 S                                               BERCARES11VP05NC19                        1966-01-011971-12-3104?0000160AV06609000000000000PRM4RDTO000000000000000000000000000000000000??????? ?002836000186001971-12-01?002836000186001966-01-01?0000000000000000001900-01-010000000000000000001900-01-0129H K NR 1900-01-01NR 1900-01-0111B2565 0000000000000N2022-06-01N 1900-01-010000
VECOP14004000759OP142200                                                 BERCARES13VP05NC22                        1968-01-019999-12-3104?0000163AV07009500000000000PRM4RDTO000000000000000000000000000000000000??????? ?152297009990001900-01-01?152297009990001968-01-01?0000000000000000001900-01-010000000000000000001900-01-0130A H NR 1900-01-01NR 1900-01-0112C2566 0000000000000N2022-06-01N 1900-01-010000
VECOP11010000760OP111200S L                                              CPECARES07VP05NM2505                      1971-01-019999-12-3104?0000145AV04406000000900000PRM4RDTO000000000000000000000000000000000000??????? ?152297009990001974-12-01?004360000286001971-01-01?0000000000000000001900-01-010000000000000000001900-01-0128D J NR 1900-01-01NR 1900-01-0110B2563 0000000000000N2022-06-01N 1900-01-010000
VECOP11016000761OP111300N SR                                             CPECARES07VP05NM276                       1979-01-019999-12-3104?0000153AV04406000000960000PRM4RDTO000000000000000000000000000000000000??????? ?152297009990001900-01-01?004726000310001979-01-01?0000000000000000001900-01-010000000000000000001900-01-0128A I NR 1900-01-01NR 1900-01-0110B2563 0000000000000N2022-06-01N 1900-01-010000
VECOP11030000762OP111300S GTJ                                            CPECARES07VP05NM4                         1981-01-019999-12-3104?0000167AV05507500000980000PRM5RDTO000000000000000000000000000000000000??????? ?152297009990001982-01-01?006159000404001981-01-01?0000000000000000001900-01-010000000000000000001900-01-0129A I NR 1900-01-01NR 1900-01-0111B3501 0000000000000N2022-06-01N 1900-01-010000
VECOP11006000763OP111600S LS                                             CPECARES09VP05NM2405                      1970-01-019999-12-3104?0000164AV05908000000000000PRM4RDTO000000000000000000000000000000000000??????? ?004970000326001900-01-01?004970000326001970-01-01?0000000000000000001900-01-010000000000000000001900-01-0130G K NR 1900-01-01NR 1900-01-0112C2554 0000000000000N2022-06-01N 1900-01-010000
VECOP11007000764OP111600S SR BERLINETTE                                  CPECARES09VP05NM24058                     1979-01-019999-12-3104?0000177AV05507500001170000PRM4RDTO000000000000000000000000000000000000??????? ?152297009990001900-01-01?152297009990001979-01-01?0000000000000000001900-01-010000000000000000001900-01-0130A I NR 1900-01-01NR 1900-01-0112C2554 0000000000000N2022-06-01N 1900-01-010000
VECOP11005000765OP111600S L                                              CPECARES09VP05NM24058                     1983-01-019999-12-3104?0000177AV05507500000000000PRM4RDTO000000000000000000000000000000000000??????? ?152297009990001900-01-01?152297009990001983-01-01?0000000000000000001900-01-010000000000000000001900-01-0130A I NR 1900-01-01NR 1900-01-0112C2554 0000000000000N2022-06-01N 1900-01-010000
VECOP11008000766OP111800S GTJ                                            CPECARES09VP05NMV8                        1983-01-011984-12-3104?0000170AV06609000001430000PRM4RDTO000000000000000000000000000000000000??????? ?010062000660001984-08-01?008385000550001983-01-01?0000000000000000001900-01-010000000000000000001900-01-0130H L NR 1900-01-01NR 1900-01-0112C2554 0000000000000N2022-06-01N 1900-01-010000
VECOP11002000767OP11SR                                                   CPECARES11VP05N2605                       1970-01-019999-12-3104?0000170AV07710500001490000PRM4RDTO000000000000000000000000000000000000??????? ?152297009990001900-01-01?002287000150001970-01-01?0000000000000000001900-01-010000000000000000001900-01-0130A I NR 1900-01-01NR 1900-01-0112C2506 0000000000000N2022-06-01N 1900-01-010000
VECOP11001000768OP11GTE                                                  CPEINJES11VP05NM27058                     1974-01-019999-12-3104?0000188AV07410000001550000PRM4RDTO000000000000000000000000000000000000??????? ?152297009990001978-04-01?006496000426101974-01-01?0000000000000000001900-01-010000000000000000001900-01-0130E K NR 1900-01-01NR 1900-01-0112C2506 0000000000000N2022-06-01N 1900-01-010000
VECOP11019000769OP11B20S L                                               CPECARES11VP05NM2105                      1978-01-019999-12-3104?0000177AV07410000001530000PRM4RDTO000000000000000000000000000000000000??????? ?152297009990001900-01-01?005946000390001978-01-01?0000000000000000001900-01-010000000000000000001900-01-0131A I NR 1900-01-01NR 1900-01-0113C2583 0000000000000N2022-06-01N 1900-01-010000
VECOP11018000770OP11B20S BERLINETTA                                      CPECARES11VP05NM2105                      1978-01-019999-12-3104?0000177AV07410000001530000PRM4RDTO000000000000000000000000000000000000??????? ?152297009990001900-01-01?006022000395001978-01-01?0000000000000000001900-01-010000000000000000001900-01-0131B I NR 1900-01-01NR 1900-01-0113C2583 0000000000000N2022-06-01N 1900-01-010000
VECOP11017000771OP1120S                                                  CPECARES09VP05NM4B8                       1979-01-019999-12-3104?0000177AV07410000001530000PRM4RDTO000000000000000000000000000000000000??????? ?152297009990001900-01-01?152297009990001979-01-01?0000000000000000001900-01-010000000000000000001900-01-0131A I NR 1900-01-01NR 1900-01-0113C2583 0000000000000N2022-06-01N 1900-01-010000
VECOP11027000772OP1120E GTE                                              CPEINJES11VP05NM2C0                       1978-01-011980-12-3104?0000189AV08111000001620000PRM4RDTO000000000000000000000000000000000000??????? ?008080000530001980-08-01?005946000390001978-01-01?0000000000000000001900-01-010000000000000000001900-01-0132I L NR 1900-01-01NR 1900-01-0114D2584 0000000000000N2022-06-01N 1900-01-010000
VECOP11026000773OP1120E BERLINETTA                                       CPEINJES11VP05NM2C0                       1978-01-011979-12-3104?0000189AV08111000001620000PRM4RDTO000000000000000000000000000000000000??????? ?007622000500001979-12-01?006708000440001978-01-01?0000000000000000001900-01-010000000000000000001900-01-0132I L NR 1900-01-01NR 1900-01-0114D2584 0000000000000N2022-06-01N 1900-01-010000
VECOP11022000774OP1120E                                                  CPEINJES09VP05NM4C8                       1979-01-011980-12-3104?0000189AV08111000001620000PRM4RDTO000000000000000000000000000000000000??????? ?008385000550001980-06-01?006708000440001979-01-01?0000000000000000001900-01-010000000000000000001900-01-0132I L NR 1900-01-01NR 1900-01-0114D2584 0000000000000N2022-06-01N 1900-01-010000
VECOP11024000775OP112000E GTJ                                            CPEINJES10VP05NMC8                        1983-01-011984-12-3104?0000185AV08111000001620000PRM4RDTO000000000000000000000000000000000000??????? ?011891000780001984-08-01?010062000660001983-01-01?0000000000000000001900-01-010000000000000000001900-01-0132I L NR 1900-01-01NR 1900-01-0114D2584 0000000000000N2022-06-01N 1900-01-010000
VECOP02057000776OP021600D GL                                             BERINJGO05VP05NJCT8                       1982-01-011986-12-3104?0000140AV04005400000960000TRM4SDTO000000000000000000000000000000000000??????? ?011739000770001986-09-01?007165000470001982-01-01?0000000000000000001900-01-010000000000000000001900-01-0128H J NR 1900-01-01NR 1900-01-0110B3507 0000000000000N2022-06-01N 1900-01-010000
VECOP02022000777OP021200 LS                                              BERCARES07VP05NA1508                      1975-01-019999-12-3104?0000152AV04406000000900000PRM4RDTO000000000000000000000000000000000000??????? ?152297009990001900-01-01?003354000220001975-01-01?0000000000000000001900-01-010000000000000000001900-01-0128A H NR 1900-01-01NR 1900-01-0110B2576 0000000000000N2022-06-01N 1900-01-010000
VECOP02002000778OP021600S LS                                             BERCARES09VP05NA1408                      1970-01-019999-12-3104?0000155AV05908000000000000PRM4RDTO000000000000000000000000000000000000??????? ?003811000250001975-12-01?003811000250001970-01-01?0000000000000000001900-01-010000000000000000001900-01-0129D J NR 1900-01-01NR 1900-01-0111B2555 0000000000000N2022-06-01N 1900-01-010000
VECOP02035000779OP021300S GL                                             BERCARES06VP05NJC94                       1984-01-011986-12-3104?0000160AV05507500001010000TRM5SDTO000000000000000000000000000000000000??????? ?010671000700001986-09-01?008537000560001984-01-01?0000000000000000001900-01-010000000000000000001900-01-0129G K NR 1900-01-01NR 1900-01-0111B2598 0000000000000N2022-06-01N 1900-01-010000
VECOP02030000780OP0220D L                                                BERINJGO07VP05NA1D0                       1979-01-019999-12-3104?0000130AV06609000001150000PRM4RDTO000000000000000000000000000000000000??????? ?152297009990001900-01-01?005183000340001979-01-01?0000000000000000001900-01-010000000000000000001900-01-0129A H NR 1900-01-01NR 1900-01-0111B2593 0000000000000N2022-06-01N 1900-01-010000
VECOP02020000781OP021600S SR                                             BERCARES06VP05NJC44                       1983-01-011984-12-3104?0000175AV06609000001260000TRM5SDTO000000000000000000000000000000000000??????? ?010976000720001984-08-01?008994000590001983-01-01?0000000000000000001900-01-010000000000000000001900-01-0130H K NR 1900-01-01NR 1900-01-0112B2557 0000000000000N2022-06-01N 1900-01-010000
VECOP02074000782OP021800S CD                                             BERINJES07VP05NJCW4                       1983-01-011984-12-3104?0000187AV08511500001510000TRM5SDTO000000000000000000000000000000000000??????? ?014025000920001984-08-01?011434000750001983-01-01?0000000000000000001900-01-010000000000000000001900-01-0132J L NR 1900-01-01NR 1900-01-0114C3512 0000000000000N2022-06-01N 1900-01-010000
VECOP02003000783OP021200 L                                               BERCARES07VP05NA1508                      1971-01-019999-12-3104?0000140AV04406000000000000PRM4RDTO000000000000000000000000000000000000??????? ?152297009990001900-01-01?152297009990001971-01-01?0000000000000000001900-01-010000000000000000001900-01-0128A H NR 1900-01-01NR 1900-01-0110A2556 0000000000000N2022-06-01N 1900-01-010000
VECOP02001000784OP021600S GLS                                            BERCARES09VP05NA1408                      1970-01-019999-12-3104?0000155AV05908000001170000PRM4RDTO000000000000000000000000000000000000??????? ?152297009990001975-12-01?004573000300001970-01-01?0000000000000000001900-01-010000000000000000001900-01-0129F K NR 1900-01-01NR 1900-01-0111B2555 0000000000000N2022-06-01N 1900-01-010000
VECOP09069000785OP091600D GL                                             BERINJGO05VP05NT84T843                    1982-01-019999-12-3104?0000143AV04005400000960000TRM4SDTO000000000000000000000000000000000000??????? ?008232000540001900-01-01?008232000540001982-01-01?0000000000000000001900-01-010000000000000000001900-01-0128D I NR 1900-01-01NR 1900-01-0110B3508 0000000000000N2022-06-01N 1900-01-010000
VECOP09006000786OP091200S BERLINA                                        CPECARES07VP04N2509                       1978-01-019999-12-3104?0000157AV04406000000000000PRM4RDTO000000000000000000000000000000000000??????? ?004253000279001900-01-01?004253000279001978-01-01?0000000000000000001900-01-010000000000000000001900-01-0128A I NR 1900-01-01NR 1900-01-0110A2559 0000000000000N2022-06-01N 1900-01-010000
VECOP09007000787OP091200S GL                                             CPECARES07VP04N2509                       1978-01-019999-12-3104?0000157AV04406000000000000PRM4RDTO000000000000000000000000000000000000??????? ?003964000260001900-01-01?003964000260001978-01-01?0000000000000000001900-01-010000000000000000001900-01-0128A I NR 1900-01-01NR 1900-01-0110A2559 0000000000000N2022-06-01N 1900-01-010000
VECOP09034000788OP091200S L                                              BERCARES07VP05NT845034                    1980-01-011984-12-3104?0000152AV04406000000880000TRM4RDTO000000000000000000000000000000000000??????? ?007318000480001984-07-01?004878000320001980-01-01?0000000000000000001900-01-010000000000000000001900-01-0128E J NR 1900-01-01NR 1900-01-0110B2596 0000000000000N2022-06-01N 1900-01-010000
VECVW04023000789VW04RABBIT                                               BERCARES07VP05N17JB32                     1984-01-011984-12-3104?1457153AV05207000000110000TRA3SDTO000000000000000000000000000000000000??????? ?008537000560001984-01-01?008537000560001984-01-01?0000000000000000001900-01-010000000000000000001900-01-0129F J NR 1900-01-01NR 1900-01-0111B2754 0000000000000N2022-06-01N 1900-01-010000
VECOP09048000790OP091300S L                                              BERCARES07VP05NT849033                    1980-01-011984-12-3104?0000158AV05507500001010000TRM4RDTO000000000000000000000000000000000000??????? ?007775000510001984-07-01?005031000330001980-01-01?0000000000000000001900-01-010000000000000000001900-01-0129E J NR 1900-01-01NR 1900-01-0111B2597 0000000000000N2022-06-01N 1900-01-010000
VECOP09060000791OP091600S L                                              BERCARES08VP05NT844533                    1982-01-019999-12-3104?1598175AV06609000001260000TRM5SDTO000000000000000000000000000000000000????N?? ?007622000500001900-01-01?007470000490001982-01-01?0000000000000000001900-01-010000000000000000001900-01-0130C I NR 1900-01-01NR 1900-01-0112B3506 0000000000000N2022-06-01N 1900-01-010000
VECOP12006000792OP122800H                                                CPECARES14VP05N2VK822                     1979-01-011981-12-3104?0000201AV10314000002180000PRM4IDDO000000000000000000000000000000000000??????? ?012806000840001981-08-01?011739000770001979-01-01?0000000000000000001900-01-010000000000000000001900-01-0133L N NR 1900-01-01NR 1900-01-0115G2591 0000000000000N2022-06-01N 1900-01-010000
VECOP12003000793OP122500E C                                              CPEINJES12VP05NAVJ4                       1983-01-011984-12-3104?0000200AV10013600001860000PRM5IDDO000000000000000000000000000000000000??????? ?019056001250001984-09-01?015092000990001983-01-01?0000000000000000001900-01-010000000000000000001900-01-0133M O NR 1900-01-01NR 1900-01-0115G2591 0000000000000N2022-06-01N 1900-01-010000
VECOP12011000794OP123000E C                                              CPEINJES16VP05NAVN4                       1983-01-011984-12-3104?0000215AV13218000002480000PRM5IDDO000000000000000000000000000000000000??????? ?020733001360001984-08-01?018141001190001983-01-01?0000000000000000001900-01-010000000000000000001900-01-0134N P NR 1900-01-01NR 1900-01-0116G2592 0000000000000N2022-06-01N 1900-01-010000
VECJA06002000795JA064,2L                                                 BERCARES24VP05N2JDN                       1969-01-011978-12-3106?4235204AV13718600000000000PRM4IDDO000000000000000000000000000000000000??????? ?016160001060001978-08-01?014940000980001969-01-01?0000000000000000001900-01-010000000000000000001900-01-0134Q S NR 1900-01-01NR 1900-01-0116W4316 0000000000000N2022-06-01N 1900-01-010000
VECJA03002000796JA035,3L                                                 BERINJES31VP05NJBALW                      1982-01-011982-12-3104?0000230AV21729500000000000PRA0IDDO000000000000000000000000000000000000??????? ?031862002090001982-04-01?030185001980001982-01-01?0000000000000000001900-01-010000000000000000001900-01-0134S U NR 1900-01-01NR 1900-01-0116W4316 0000000000000N2022-06-01N 1900-01-010000
VECJA03001000797JA034,2L                                                 BERINJES27VP05NJAALP                      1980-01-011982-12-3104?0000190AV15120500000000000PRA4IDDO000000000000000000000000000000000000??????? ?025916001700001982-04-01?018904001240001980-01-01?0000000000000000001900-01-010000000000000000001900-01-0134Q S NR 1900-01-01NR 1900-01-0116W4316 0000000000000N2022-06-01N 1900-01-010000
VECPO04003000798PO04INJECTION                                            CPEINJES11VP05N924XK                      1976-01-011981-12-3104?0000214AV09212500000000000PRM4IDDO000000000000000000000000000000000000??????? ?013568000890001981-03-01?011891000780001976-01-01?0000000000000000001900-01-010000000000000000001900-01-0134L N NR 1900-01-01NR 1900-01-0116F2621 0000000000000N2022-06-01N 1900-01-010000
VECPO04001000799PO04INJECTION                                            CPEINJES09VP05N9249XK                     1980-01-011984-12-3104?0000209AV09212500000000000PRA3IDTO000000000000000000000000000000000000??????? ?019666001290001984-11-01?012653000830001980-01-01?0000000000000000001900-01-010000000000000000001900-01-0134M O NR 1900-01-01NR 1900-01-0116F2621 0000000000000N2022-06-01N 1900-01-010000
VECPO07011000800PO07INJECTION                                            CPEINJES14VP05N94413                      1982-01-019999-12-3104?0000220AV12016300002050000PRA3IDDO000000000000000000000000000000000000??????? ?026679001750001984-11-01?019818001300001982-01-01?0000000000000000001900-01-010000000000000000001900-01-0135N O NR 1900-01-01NR 1900-01-0117W2619 0000000000000N2022-06-01N 1900-01-010000
VECPO06001000801PO06TURBO INJECTION                                      CPEINSES19VP04N93019                      1980-01-011980-12-3106?3299285AR22130000000420000PRM4IDDN000000000000000000000000130016800000????N?? ?043296002840001980-07-01?041771002740001980-01-01?0000000000000000001900-01-010000000000000000001900-01-0143HCV NR 1900-01-01NR 1900-01-0117W2619 0000000000000N2022-06-01N 1900-01-010000
VECPO06002000802PO06L INJECTION                                          CPEINSES19VP04N930L                       1978-01-011979-12-3106?3299285AR22130000000420000PRM4IDDN000000000000000000000000130016800000????N?? ?040399002650001979-02-01?037960002490001978-01-01?0000000000000000001900-01-010000000000000000001900-01-0143HCV NR 1900-01-01NR 1900-01-0117W2619 0000000000000N2022-06-01N 1900-01-010000
VECPO06003000803PO06TURBO INJECTION                                      CABINSES19VP04N93019                      1980-01-011980-12-3106?3299285AR22130000000420000PRM4IDDO000000000000000000000000130016800000????N?? ?043296002840001980-07-01?041771002740001980-01-01?0000000000000000001900-01-010000000000000000001900-01-0143HCT NR 1900-01-01NR 1900-01-0117W2619 0000000000000N2022-06-01N 1900-01-010000
VECPO05005000804PO05S                                                    CPEINJES31VP05N9285                       1980-01-011984-12-3104?0000247AV22130000003850000PRM5IDDO000000000000000000000000000000000000??????? ?057931003800001984-11-01?035063002300001980-01-01?0000000000000000001900-01-010000000000000000001900-01-0135V HCNR 1900-01-01NR 1900-01-0117W2619 0000000000000N2022-06-01N 1900-01-010000
VECPO01001000805PO01TARGA T                                              CABCARES13VP05N911                        1969-01-011975-12-3104?0000205AR09212500000240000PRM4IDDO000000000000000000000000000000000000??????? ?007927000520001975-06-01?005641000370001969-01-01?0000000000000000001900-01-010000000000000000001900-01-0135M M NR 1900-01-01NR 1900-01-0117W2619 0000000000000N2022-06-01N 1900-01-010000
VECPO01012000806PO01TARGA SC                                             CABINJES16VP05N91116                      1980-01-011983-12-3104?0000211AR13818800002650000PRM5IDDO000000000000000000000000000000000000??????? ?037198002440001983-05-01?023630001550001980-01-01?0000000000000000001900-01-010000000000000000001900-01-0135S R NR 1900-01-01NR 1900-01-0117W2619 0000000000000N2022-06-01N 1900-01-010000
VECPO01011000807PO01SC                                                   CPEINJES16VP05N91116                      1980-01-011983-12-3104?0000211AR13818800002650000PRM5IDDO000000000000000000000000000000000000??????? ?035216002310001983-05-01?022105001450001980-01-01?0000000000000000001900-01-010000000000000000001900-01-0135S S NR 1900-01-01NR 1900-01-0117W2619 0000000000000N2022-06-01N 1900-01-010000
VECSK02001000808SK02L                                                    BERCARES06VP05N1050                       1983-01-011986-12-3104?0000128AR03404600000760000PRM4IDTO000000000000000000000000000000000000??????? ?004269000280001986-03-01?003354000220001983-01-01?0000000000000000001900-01-010000000000000000001900-01-0126A I NR 1900-01-01NR 1900-01-0108B8508 0000000000000N2022-06-01N 1900-01-010000
VECSK03001000809SK03LS                                                   BERCARES07VP05N120                        1983-01-011986-12-3104?0000139AR04305800000920000PRM4IDTO000000000000000000000000000000000000??????? ?004421000290001986-01-01?003659000240001983-01-01?0000000000000000001900-01-010000000000000000001900-01-0128A I NR 1900-01-01NR 1900-01-0110B8511 0000000000000N2022-06-01N 1900-01-010000
VECLD03003000810LD03S                                                    BERCARES07VP05N21013                      1978-01-011988-12-3104?1198139AV04806500000960000PRM4RDTO000000000000000000000000095513550000????N?? ?004362000286151988-09-01?002592000170001978-01-01?0000000000000000001900-01-010000000000000000001900-01-0126A H NR 1900-01-01NR 1900-01-0110B6179 0000000000000N2022-06-01N 1900-01-010000
VECLD04002000811LD04                                                     BERCARES07VP05N21033                      1977-01-011979-12-3104?1294142AV04806500000890000PRM4RDTN000000000000000000000000103014300000????N?? ?003506000230001979-12-01?003049000200001977-01-01?0000000000000000001900-01-010000000000000000001900-01-0127B H NR 1900-01-01NR 1900-01-0110B6179 0000000000000N2022-06-01N 1900-01-010000
VECLD04001000812LD04                                                     BERCARES07VP05N21011                      1975-01-011976-12-3104?1294140AV04806500000960000PRM4IDTO000000000000000000000000095513550000????N?? ?002592000170001976-12-01?002439000160001975-01-01?0000000000000000001900-01-010000000000000000001900-01-0126B H NR 1900-01-01NR 1900-01-0110B6179 0000000000000N2022-06-01N 1900-01-010000
VECLD05001000813LD052105                                                 BERCARES07VP05N2105                       1981-01-011988-12-3104?1294144AV04806500000940000PRM4RDTO000000000000000000000000106014600000????N?? ?005160000338501988-09-01?003811000250001981-01-01?0000000000000000001900-01-010000000000000000001900-01-0127A H NR 1900-01-01NR 1900-01-0110B6179 0000000000000N2022-06-01N 1900-01-010000
VECLD06001000814LD06                                                     BERCARES09VP05N2106                       1978-01-011983-12-3104?1568150AV05707800000120000PRM4RDTO000000000000000000000000104514450000????N?? ?004726000310001983-09-01?003354000220001978-01-01?0000000000000000001900-01-010000000000000000001900-01-0128A H NR 1900-01-01NR 1900-01-0111B6181 0000000000000N2022-06-01N 1900-01-010000
VECLD05005000815LD05                                                     BERCARES08VP05N21061                      1977-01-011978-12-3104?1451150AV05507500001080000PRM4RDTO000000000000000000000000104514450000????N?N ?003201000210001978-02-01?003201000210001977-01-01?0000000000000000001900-01-010000000000000000001900-01-0128B I NR 1900-01-01NR 1900-01-0111B6181 0000000000000N2022-06-01N 1900-01-010000
VECLD01001000816LD014X4                                                  TTSCARES09VP05N2121                       1978-01-011993-12-3104?1568129AV057078000001200004PM4RDTO000000000000000000000000118515500000????N?? ?008667000568501993-07-01?004878000320001978-01-01?0000000000000000001900-01-010000000000000000001900-01-0126D J NR 1900-01-01NR 1900-01-0111C6189 0000000000000N2022-06-01N 1900-01-010000
VECTR01003000817TR01HLS                                                  BERCARES06VP05NXDFLX8                     1982-01-011984-12-3104?0000155AV05207000001020000TRM5SDTO000000000000000000000000000000000000??????? ?008385000550001984-07-01?006555000430001982-01-01?0000000000000000001900-01-010000000000000000001900-01-0128F J NR 1900-01-01NR 1900-01-0110B5029 0000000000000N2022-06-01N 1900-01-010000
VECTR06005000818TR067                                                    CABCARES08VP05NTPADJ                      1981-01-011982-12-3104?0000177AV07710500000160000PRM5RDTO000000000000000000000000000000000000??????? ?152297009990001900-01-01?008385000550001981-01-01?0000000000000000001900-01-010000000000000000001900-01-0131G J NR 1900-01-01NR 1900-01-0113D5028 0000000000000N2022-06-01N 1900-01-010000
VECTR06003000819TR067                                                    CABCARES11VP05NACG                        1976-01-011982-12-3104?0000190AV11015000001640000PRM4RDTO000000000000000000000000000000000000??????? ?005946000390001976-06-01?005946000390001976-01-01?0000000000000000001900-01-010000000000000000001900-01-0132D I NR 1900-01-01NR 1900-01-0114C5027 0000000000000N2022-06-01N 1900-01-010000
VECAL02001000820AL02V6                                                   CPECARES15VP05N2700VA                     1977-01-011984-12-3104?0000225AV11015000002080000PRM4IDDO000000000000000000000000000000000000??????? ?022867001500001984-12-01?012348000810001977-01-01?0000000000000000001900-01-010000000000000000001900-01-0134O P NR 1900-01-01NR 1900-01-0116G1119 0000000000000N2022-06-01N 1900-01-010000
VECMT01001000821MT01                                                     CPECARES07VP03NX3550                      1977-01-019999-12-3104?1294194AV06208400001080000PRM4IDDO000000000000000000000000098012450000????N?? ?006327000415001900-01-01?006327000415001977-01-01?0000000000000000001900-01-010000000000000000001900-01-0131C J NR 1900-01-01NR 1900-01-0113C1010 0000000000000N2022-06-01N 1900-01-010000
VECMT04007000822MT04X                                                    BRKCARES08VP05N31D331                     1983-01-011984-12-3104?0000145AV05908000001180000TRM4IDDO000000000000000000000000000000000000??????? ?011891000780001984-04-01?009513000624001983-01-01?0000000000000000001900-01-010000000000000000001900-01-0128I K NR 1900-01-01NR 1900-01-0110C1011 0000000000000N2022-06-01N 1900-01-010000
VECMT04005000823MT04PACK RAID                                            BRKCARES08VP05N31D331                     1982-01-011984-12-3104?0000145AV05908000000120000TRM4IDDO000000000000000000000000000000000000??????? ?011891000780001984-06-01?009863000647001982-01-01?0000000000000000001900-01-010000000000000000001900-01-0128I K NR 1900-01-01NR 1900-01-0110C1011 0000000000000N2022-06-01N 1900-01-010000
VECMT02001000824MT021,6L                                                 CPECARES09VP03N53C392                     1982-01-011983-12-3104?0000178AV06809200001350000TRM5IDTO000000000000000000000000000000000000??????? ?011586000760001983-04-01?009894000649001982-01-01?0000000000000000001900-01-010000000000000000001900-01-0130I L NR 1900-01-01NR 1900-01-0112D1013 0000000000000N2022-06-01N 1900-01-010000
VECMT02003000825MT022,2L                                                 CPECARES12VP03N53C432                     1982-01-011983-12-3104?0000185AV08711800001850000TRM5IDDO000000000000000000000000000000000000??????? ?013720000900001983-06-01?011662000765001982-01-01?0000000000000000001900-01-010000000000000000001900-01-0132K M NR 1900-01-01NR 1900-01-0114D1014 0000000000000N2022-06-01N 1900-01-010000
VECMT02005000826MT022,2L KIT 142                                         CPECARES12VP03N53C432                     1983-01-011984-12-3104?0000200AV10314000001870000TRM5IDDO000000000000000000000000000000000000??????? ?015855001040001984-06-01?015245001000001983-01-01?0000000000000000001900-01-010000000000000000001900-01-0133K M NR 1900-01-01NR 1900-01-0115E1015 0000000000000N2022-06-01N 1900-01-010000
VECPE07001000827PE07BASE                                                 BERCARES04VP05N741A01                     1983-01-011984-12-3104?0954134AV03304500000670000TRM4IDTN000000000000000000000000074011400000??????? ?007318000480001985-09-01?005488000360001983-01-01?0026790000970003532022-01-040013070000610001572000-04-0125E L NR 1900-01-01NR 1900-01-0108A1522 0000000000000N2022-06-01N 1900-01-010000
VECPE07019000828PE07GR                                                   BERCARES04VP05N741A11                     1983-01-011987-12-3104?1124142AV03705000000840000TRM4IDTO000000000000000000000000074011950000??????? ?008994000590001987-05-01?006555000430001983-01-01?0030600000970003532022-01-040014620000610001572000-04-0126E M NR 1900-01-01NR 1900-01-0109A1523 0000000000000N2022-06-01N 1900-01-010000
VECPE07030000829PE07GR                                                   BERCARES05VP05N741A47                     1983-01-011987-12-3104?1360155AV04406000001050000TRM5IDTO000000000000000000000000078512400000??????? ?009604000630001987-05-01?006860000450001983-01-01?0030600000970003532022-01-040014620000610001572000-04-0127F M NR 1900-01-01NR 1900-01-0110A1524 0000000000000N2022-06-01N 1900-01-010000
VECPE07037000830PE07GT                                                   BERCARES07VP05N741A57                     1983-01-011987-12-3104?1360170AV05807900001090000TRM5IDTO000000000000000000000000081012250000??????? ?010519000690001987-05-01?007622000500001983-01-01?0030710000970003012022-01-040014970000610001572000-04-0129F M NR 1900-01-01NR 1900-01-0111A1525 0000000000000N2022-06-01N 1900-01-010000
VECAR05034000831AR05TI 105 QUADRI VERDE                                  BERCARES08VP05N901G5C                     1983-01-011984-12-3104?1490182AV07810600000130000TRM5RDDO000000000000000000000000089513200000????N?N ?009299000610001984-04-01?008690000570001983-01-01?0000000000000000001900-01-010000000000000000001900-01-0131G K NR 1900-01-01NR 1900-01-0113B6047 0000000000000N2022-06-01N 1900-01-010000
VECAU06093000832AU06CC TURBO D                                           BERINSGO06VP05N44DE2                      1983-01-011986-12-3105?1986172AV06408700001720000TRM5SDTO000000000000000000000000125017500000????S?? ?021190001390001986-04-01?015092000990001983-01-01?0000000000000000001900-01-010000000000000000001900-01-0130M L NR 1900-01-01NR 1900-01-0114D2052 0000000000000N2022-06-01N 1900-01-010000
VECAU06097000833AU06CD TURBO D                                           BERINSGO06VP05N44DE2                      1983-01-011988-12-3105?1986172AV06408700001720000TRM5SDTO000000000000000000000000125017500000????S?? ?026069001710001988-01-01?018446001210001983-01-01?0000000000000000001900-01-010000000000000000001900-01-0130N M NR 1900-01-01NR 1900-01-0114E2053 0000000000000N2022-06-01N 1900-01-010000
VECFO07193000834FO071600 RS                                              BERINJES06VP05NABA1J                      1983-01-011983-12-3104?1597191AV08511500001480000TRM5IDTO000000000000000000000000091513750000????N?N ?011281000740001983-02-01?011281000740001983-01-01?0000000000000000001900-01-010000000000000000001900-01-0132I L NR 1900-01-01NR 1900-01-0114C4155 0000000000000N2022-06-01N 1900-01-010000
VECLA10008000835LA102000 VOLUMEX                                         BERCARES10VP05N828DB17                    1983-01-011986-12-3104?1995190AV09913500002060000TRM5IDDO000000000000000000000000119515950000????S?? ?014788000970001986-04-01?012653000830001983-01-01?0000000000000000001900-01-010000000000000000001900-01-0132J L NR 1900-01-01NR 1900-01-0114D6247 0000000000000N2022-06-01N 1900-01-010000
VECAB02001000836AB02JUNIOR                                               BERCARES04VP05NA112B1                     1982-01-011985-12-3104?0903137AV03104200000680000TRM4IDTN000000000000000000000000065517800000????N?? ?005946000390001985-09-01?003659000240001982-01-01?0000000000000000001900-01-010000000000000000001900-01-0127B H NR 1900-01-01NR 1900-01-0108A6315 0000000000000N2022-06-01N 1900-01-010000
VECAB02010000837AB02ABARTH                                               BERCARES06VP05NA112B2                     1978-01-011982-12-3104?1050156AV05207000000870000TRM5IDTN000000000000000000000000070011000000????N?? ?006250000410001982-07-01?003613000237001978-01-01?0000000000000000001900-01-010000000000000000001900-01-0127E I NR 1900-01-01NR 1900-01-0110C6318 0000000000000N2022-06-01N 1900-01-010000
VECAB02005000838AB02ELITE                                                BERCARES05VP05NA112B1                     1980-01-011985-12-3104?0965140AV03504800000710000TRM5IDTN000000000000000000000000067510750000????N?? ?006555000430001985-06-01?004116000270001980-01-01?0000000000000000001900-01-010000000000000000001900-01-0125C G NR 1900-01-01NR 1900-01-0108A6315 0000000000000N2022-06-01N 1900-01-010000
VECFP02005000839FP021500                                                 BERCARES07VP05NB01ABF                     1981-01-011985-12-3104?0000155AV06008200000000000PRM5RDDO000000000000000000000000000000000000??????? ?006250000410001985-07-01?004726000310001981-01-01?0000000000000000001900-01-010000000000000000001900-01-0129C I NR 1900-01-01NR 1900-01-0111B6168 0000000000000N2022-06-01N 1900-01-010000
VECFP03001000840FP031300 SUPER                                           BERCARES07VP05N115C4176                   1972-01-011976-12-3104?0000140AV04806500000000000PRM4RDDO000000000000000000000000000000000000??????? ?002134000140001976-02-01?001829000120001972-01-01?0000000000000000001900-01-010000000000000000001900-01-0128A H NR 1900-01-01NR 1900-01-0110B6167 0000000000000N2022-06-01N 1900-01-010000
VECVW04048000841VW04GLS                                                  CABCARES07VP05N155JB1                     1979-01-011981-12-3104?1457157AV05207000000110000TRM5SDTO000000000000000000000000000000000000??????? ?008537000560001981-05-01?005031000330001979-01-01?0000000000000000001900-01-010000000000000000001900-01-0129H J NR 1900-01-01NR 1900-01-0111D2791 0000000000000N2022-06-01N 1900-01-010000
VECVW04051000842VW04GLS                                                  CABCARES08VP05N155JB3                     1979-01-011981-12-3104?1457157AV05207000000110000TRA3SDTO000000000000000000000000000000000000??????? ?008842000580001981-05-01?005336000350001979-01-01?0000000000000000001900-01-010000000000000000001900-01-0129I J NR 1900-01-01NR 1900-01-0111D2791 0000000000000N2022-06-01N 1900-01-010000
VECVW04019000843VW04GX                                                   BERCARES06VP05N17JB2                      1984-01-011984-12-3104?1457159AV05207000000110000TRM5SDTO000000000000000000000000000000000000??????? ?008842000580001984-01-01?008842000580001984-01-01?0000000000000000001900-01-010000000000000000001900-01-0129F I NR 1900-01-01NR 1900-01-0111B2754 0000000000000N2022-06-01N 1900-01-010000
VECVW04046000844VW04RABBIT JUNIOR TD                                     BERINSGO05VP05N17CY2                      1984-01-011984-12-3104?1588155AV05207000001350000TRM5SDTO000000000000000000000000000000000000??????? ?009757000640001984-01-01?009757000640001984-01-01?0000000000000000001900-01-010000000000000000001900-01-0129G I NR 1900-01-01NR 1900-01-0111C2788 0000000000000N2022-06-01N 1900-01-010000
VECVW04053000845VW04RABBIT GTI                                           BERINJES09VP05N17DX2                      1984-01-011984-12-3104?1781183AV08211200001530000TRM5SDTO000000000000000000000000000000000000??????? ?008994000590001984-01-01?008994000590001984-01-01?0000000000000000001900-01-010000000000000000001900-01-0131G J NR 1900-01-01NR 1900-01-0113C2798 0000000000000N2022-06-01N 1900-01-010000
VECVW04052000846VW04GTI PLUS                                             BERINJES09VP05N17DX2                      1984-01-011984-12-3104?1781183AV08211200001530000TRM5SDTO000000000000000000000000088500000000??????? ?010671000700001984-01-01?010671000700001984-01-01?0000000000000000001900-01-010000000000000000001900-01-0131H J NR 1900-01-01NR 1900-01-0113C2798 0000000000000N2022-06-01N 1900-01-010000
VECOP15025000847OP152000E                                                BERINJES10VP05NAVC8                       1984-01-011984-12-3104?0000180AV08511500000160000PRM4IDDO000000000000000000000000000000000000??????? ?014940000980001984-08-01?014025000920001984-01-01?0000000000000000001900-01-010000000000000000001900-01-0132K M NR 1900-01-01NR 1900-01-0114E3519 0000000000000N2022-06-01N 1900-01-010000
VECOP15027000848OP152000E C                                              BERINJES10VP05NAVC8                       1984-01-011984-12-3104?0000180AV08511500000160000PRM4IDDO000000000000000000000000000000000000??????? ?015702001030001984-02-01?015245001000001984-01-01?0000000000000000001900-01-010000000000000000001900-01-0132K M NR 1900-01-01NR 1900-01-0114E3519 0000000000000N2022-06-01N 1900-01-010000
VECVW04022000849VW04GX                                                   BERCARES07VP05N17JB32                     1984-01-011984-12-3104?1457153AV05207000000110000TRA3SDTO000000000000000000000000000000000000??????? ?009299000610001984-01-01?009299000610001984-01-01?0000000000000000001900-01-010000000000000000001900-01-0129G J NR 1900-01-01NR 1900-01-0111B2754 0000000000000N2022-06-01N 1900-01-010000
VECLA03004000850LA031300 FL                                              BERCARES06VP05N831ABO4                    1983-01-011987-12-3104?0000160AV05707800001050000TRM5IDTO000000000000000000000000000000000000??????? ?010214000670001986-09-01?007927000520001983-01-01?0000000000000000001900-01-010000000000000000001900-01-0129F J NR 1900-01-01NR 1900-01-0111B6241 0000000000000N2022-06-01N 1900-01-010000
VECFI17006000851FI172500 D                                               BERINJGO09VP05N132AD                      1979-01-011981-12-3104?0000145AV05307200000150000PRM5RDTO000000000000000000000000000000000000??????? ?007318000480001981-08-01?006403000420001979-01-01?0000000000000000001900-01-010000000000000000001900-01-0130G J NR 1900-01-01NR 1900-01-0112C6198 0000000000000N2022-06-01N 1900-01-010000
VECTA02028000852TA02PREMIUM                                              BERCARES08VP05N21A362                     1982-01-011985-12-3104?0000175AV06609000001320000TRM5IDTO000000000000000000000000094513900000??????? ?010062000660001985-06-01?008080000530001982-01-01?0000000000000000001900-01-010000000000000000001900-01-0130G J NR 1900-01-01NR 1900-01-0112B0795 0000000000000N2022-06-01N 1900-01-010000
VECVW14001000853VW14L                                                    CPECARES06VP04N53FA1                      1974-01-019999-12-3104?0000144AV03705000000820000TRM4SDTO000000000000000000000000000000000000??????? ?152297009990001900-01-01?002744000180001974-01-01?0000000000000000001900-01-010000000000000000001900-01-0127A H NR 1900-01-01NR 1900-01-0109B2750 0000000000000N2022-06-01N 1900-01-010000
VECRE37016000854RE371300 AUTOMATIC                                       BERCARES06VP05N122503                     1980-01-011982-12-3104?1289140AV04005500000920000TRA3IDTO000000000000000000000000081012100000????N?? ?006250000410001982-01-01?004726000310001980-01-01?0000000000000000001900-01-010000000000000000001900-01-0126E I NR 1900-01-01NR 1900-01-0108A0685 0000000000000N2022-06-01N 1900-01-010000
VECRE37009000855RE37GTL (M4)                                             BERCARES04VP05N139700                     1982-01-011984-12-3104?1108137AV03304500000850000TRM4IDTO000000000000000000000000078511850000????N?? ?007013000460001984-03-01?005946000390001982-01-01?0000000000000000001900-01-010000000000000000001900-01-0125D G NR 1900-01-01NR 1900-01-0108A0685 0000000000000N2022-06-01N 1900-01-010000
VECFO13105000856FO132000 GHIA                                            BRKCARES08VP05NBNCJH                      1983-01-011987-12-3104?1993184AV07710500001570000PRM5IDTO000000000000000000000000000000000000??????? ?015092000990001987-02-01?011891000780001983-01-01?0000000000000000001900-01-010000000000000000001900-01-0131J M NR 1900-01-01NR 1900-01-0113C4145 0000000000000N2022-06-01N 1900-01-010000
VECOP15020000857OP152000E C                                              BERINJES08VP05NAVC4                       1984-01-011984-12-3104?0000180AV08511500000160000PRM5IDDO000000000000000000000000000000000000??????? ?016617001090001984-08-01?015550001020001984-01-01?0000000000000000001900-01-010000000000000000001900-01-0132L M NR 1900-01-01NR 1900-01-0114E3519 0000000000000N2022-06-01N 1900-01-010000
VECOP15019000858OP152000E                                                BERINJES08VP05NAVC4                       1984-01-011984-12-3104?0000180AV08511500000160000PRM5IDDO000000000000000000000000000000000000??????? ?015092000990001984-08-01?014178000930001984-01-01?0000000000000000001900-01-010000000000000000001900-01-0132K M NR 1900-01-01NR 1900-01-0114E3519 0000000000000N2022-06-01N 1900-01-010000
VECOP15026000859OP152000E C                                              BERINJES10VP05NAVC5                       1984-01-011984-12-3104?0000175AV08511500000160000PRA4IDDO000000000000000000000000000000000000??????? ?016312001070001984-02-01?015855001040001984-01-01?0000000000000000001900-01-010000000000000000001900-01-0132L N NR 1900-01-01NR 1900-01-0114E3519 0000000000000N2022-06-01N 1900-01-010000
VECOP15024000860OP152000E                                                BERINJES10VP05NAVC5                       1984-01-011984-12-3104?0000175AV08511500000160000PRA4IDDO000000000000000000000000000000000000??????? ?015397001010001984-08-01?014483000950001984-01-01?0000000000000000001900-01-010000000000000000001900-01-0132K M NR 1900-01-01NR 1900-01-0114E3519 0000000000000N2022-06-01N 1900-01-010000
VECBM34005000861BM34I STANDARD                                           BERINJES14VP05NFE71S5                     1983-01-011986-12-3106?2788189AV13518400000240000PRM5IDDO000000000000000000000000147019800000????S?N ?031862002090001986-09-01?024788001626001983-01-01?0000000000000000001900-01-010000000000000000001900-01-0134P Q NR 1900-01-01NR 1900-01-0116X2163 0000000000000N2022-06-01N 1900-01-010000
VECBM16006000862BM16                                                     BERCARES08VP05NAK51S5                     1983-01-011985-12-3104?1766175AV06609000000140000PRM5IDTO000000000000000000000000099014500000??????? ?011586000760001985-06-01?010367000680001983-01-01?0019600002850002472000-11-270019600002850002472000-11-2730H M NR 1900-01-01NR 1900-01-0112C2151 0000000000000N2022-06-01N 1900-01-010000
VECBM17006000863BM17I                                                    BERINJES08VP05NAK71S5                     1983-01-011985-12-3104?1766184AV07710500001450000PRM5IDTO000000000000000000000000000000000000??????? ?013720000900001985-06-01?011586000760001983-01-01?0019600002850002472000-11-270019600002850002472000-11-2731J M NR 1900-01-01NR 1900-01-0113C2167 0000000000000N2022-06-01N 1900-01-010000
VECBM18005000864BM18I                                                    BERINJES08VP05NAA31S5                     1983-01-011988-12-3104?1990196AV09212500000170000PRM5IDTO000000000000000000000000000000000000??????? ?019056001250001988-02-01?012958000850001983-01-01?0019600002850002472000-11-270019600002850002472000-11-2732L M NR 1900-01-01NR 1900-01-0114D2154 0000000000000N2022-06-01N 1900-01-010000
VECBM19014000865BM19I                                                    BERINJES11VP05NAA71S5                     1983-01-011983-12-3106?2316202AV10213900002050000PRM5IDDO000000000000000000000000109015500000????O?? ?016160001060001983-09-01?014483000950001983-01-01?0019600002850002472000-11-270019600002850002472000-11-2733L M NR 1900-01-01NR 1900-01-0116F2175 0000000000000N2022-06-01N 1900-01-010000
VECOP12022000866OP122000E C                                              CPEINJES10VP05NAVC8                       1984-01-011984-12-3104?0000180AV08511500000160000PRM4IDDO000000000000000000000000000000000000??????? ?017227001130001984-08-01?015855001040001984-01-01?0000000000000000001900-01-010000000000000000001900-01-0132L N NR 1900-01-01NR 1900-01-0114F3520 0000000000000N2022-06-01N 1900-01-010000
VECBM23003000867BM23I                                                    BERINJES09VP05NDK51S5                     1983-01-011988-12-3106?1990185AV09212500001650000PRM5IDTO000000000000000000000000122017300000????S?? ?021343001400001988-02-01?015397001010001983-01-01?0000000000000000001900-01-010000000000000000001900-01-0132L O NR 1900-01-01NR 1900-01-0114E2146 0000000000000N2022-06-01N 1900-01-010000
VECBM34014000868BM34I SPECIALE                                           BERINJES12VP05NFD71S5                     1983-01-011983-12-3106?2494188AV11215200002150000PRM5IDDO000000000000000000000000147019800000????S?? ?022715001490001983-11-01?022044001446001983-01-01?0000000000000000001900-01-010000000000000000001900-01-0133O Q NR 1900-01-01NR 1900-01-0116H2172 0000000000000N2022-06-01N 1900-01-010000
VECBM29004000869BM29CSI                                                  CPEINJES15VP04NEA71S5                     1983-01-011988-12-3106?2788212AV13818700000240000PRM5IDDO000000000000000000000000143018500000????S?? ?041009002690001988-02-01?032258002116001983-01-01?0000000000000000001900-01-010000000000000000001900-01-0135R S NR 1900-01-01NR 1900-01-0117W2156 0000000000000N2022-06-01N 1900-01-010000
VECBM32012000870BM32CSI                                                  CPEINJES20VP04NEC71S5                     1983-01-011988-12-3106?3430229AV16021700000310000PRM5IDDO000000000000000000000000143018500000????S?? ?038722002540001983-02-04?038722002540001983-01-01?0000000000000000001900-01-010000000000000000001900-01-0137R R NR 1900-01-01NR 1900-01-0117W2156 0000000000000N2022-06-01N 1900-01-010000
VECBM36006000871BM36I                                                    BERINJES18VP05NFF71S5                     1983-01-011985-12-3106?3210208AV14519700002850000PRM5IDDO000000000000000000000000150020100000????S?N ?030795002020001985-09-01?027715001818001983-01-01?0000000000000000001900-01-010000000000000000001900-01-0136Q R NR 1900-01-01NR 1900-01-0116X2159 0000000000000N2022-06-01N 1900-01-010000
VECBM38005000872BM38I                                                    BERINJES20VP05NFH71S5                     1983-01-011986-12-3106?3430217AV16021800000310000PRM5IDDO000000000000000000000000150020100000????S?N ?039484002590001986-09-01?031404002060001983-01-01?0000000000000000001900-01-010000000000000000001900-01-0137R Q NR 1900-01-01NR 1900-01-0116X2159 0000000000000N2022-06-01N 1900-01-010000
VECMZ17013000873MZ171600 DX                                              BERCARES09VP05NGB1213                     1981-01-011983-12-3104?0000155AV05507500001210000PRA3RDTO000000000000000000000000000000000000??????? ?007318000480001983-05-01?005793000380001981-01-01?0000000000000000001900-01-010000000000000000001900-01-0129E M NR 1900-01-01NR 1900-01-0111C9128 0000000000000N2022-06-01N 1900-01-010000
VECMZ15032000874MZ151500 GT                                              BERCARES06VP05NBD1051                     1982-01-011982-12-3104?0000168AV06308500001180000TRM5IDTO000000000000000000000000000000000000??????? ?006860000450001982-09-01?006250000410001982-01-01?0000000000000000001900-01-010000000000000000001900-01-0129E L NR 1900-01-01NR 1900-01-0111C9132 0000000000000N2022-06-01N 1900-01-010000
VECCI27032000875CI27SUPER E                                              CABCARES05VP05NVDVGD                      1983-01-011983-12-3104?1124143AV03705000000830000TRM5IDTO000000000000000000000000081012350000????N?? ?008537000560001984-06-01?008537000560001983-01-01?0000000000000000001900-01-010000000000000000001900-01-0126G I NR 1900-01-01NR 1900-01-0109C0921 0000000000000N2022-06-01N 1900-01-010000
VECLA03013000876LA031600 GT                                              BERCARES08VP05N831ABO6                    1983-01-011986-12-3104?0000175AV07710500001350000TRM5IDDO000000000000000000000000000000000000??????? ?011281000740001986-04-01?009299000610001983-01-01?0000000000000000001900-01-010000000000000000001900-01-0131G K NR 1900-01-01NR 1900-01-0113C6248 0000000000000N2022-06-01N 1900-01-010000
VECME02002000877ME02                                                     BERCARES09VP05N20102210                   1983-01-011984-12-3104?1997175AV06609000001650000PRM4IDDO000000000000000000000000000000000000??????? ?016617001090001984-09-01?014330000940001983-01-01?0000000000000000001900-01-010000000000000000001900-01-0131L M NR 1900-01-01NR 1900-01-0113F2387 0000000000000N2022-06-01N 1900-01-010000
VECME02006000878ME02E                                                    BERINJES09VP05N20102410                   1983-01-011989-12-3104?1996195AV09012200001780000PRM4IDTO000000000000000000000000000000000000??????SE?021038001380001989-02-06?016769001100001983-01-01?0000000000000000001900-01-010000000000000000001900-01-0133L M NR 1900-01-01NR 1900-01-0115F2388 0000000000000N2022-06-01N 1900-01-010000
VECAU12056000879AU12QUATTRO 4X4                                          BERINJES13VP05N81KK2                      1983-01-011984-12-3104?2144193AV100136000017900004PM5SDDO000000000000000000000000119016500000????S?? ?020428001340001984-03-01?018141001190001983-01-01?0000000000000000001900-01-010000000000000000001900-01-0132N M NR 1900-01-01NR 1900-01-0115G2054 0000000000000N2022-06-01N 1900-01-010000
VECOP09088000880OP091800 GTE                                             BERINJES08VP05NT82W433                    1983-01-011984-12-3104?1796187AV08511500001510000TRM5SDTO000000000000000000000000098014400000????N?? ?011281000740001984-08-01?009711000637001983-01-01?0000000000000000001900-01-010000000000000000001900-01-0131I K NR 1900-01-01NR 1900-01-0113C3516 0000000000000N2022-06-01N 1900-01-010000
VECTO21007000881TO214X4                                                  BRKCARES08VP05NWOAL25                     1983-01-011988-12-3104?0000155AV052070000010800004DM6RDTO000000000000000000000000000000000000??????? ?012951000849501988-01-01?010519000690001983-01-01?0000000000000000001900-01-010000000000000000001900-01-0129H K NR 1900-01-01NR 1900-01-0111D8943 0000000000000N2022-06-01N 1900-01-010000
VECTO01001000882TO01                                                     BERCARES08VP05NSV10EM                     1983-01-011984-12-3104?0000175AV06609000001420000TRM5IDTO000000000000000000000000000000000000??????? ?008080000530001984-07-01?011586000760001983-01-01?0000000000000000001900-01-010000000000000000001900-01-0130E J NR 1900-01-01NR 1900-01-0112D8944 0000000000000N2022-06-01N 1900-01-010000
VECLA08011000883LA081600                                                 BERCARES08VP05N831ABOD                    1983-01-011986-12-3104?0000175AV07710500001350000TRM5IDTO000000000000000000000000000000000000??????? ?012653000830001986-09-01?010062000660001983-01-01?0000000000000000001900-01-010000000000000000001900-01-0131H K NR 1900-01-01NR 1900-01-0113C6251 0000000000000N2022-06-01N 1900-01-010000
VECLA08006000884LA081500 LX                                              BERCARES07VP05N831ABOB                    1983-01-011989-12-3104?0000160AV06308500001230000TRM5IDTO000000000000000000000000000000000000??????? ?012638000829001989-09-08?009299000610001983-01-01?0000000000000000001900-01-010000000000000000001900-01-0129H K NR 1900-01-01NR 1900-01-0111C6250 0000000000000N2022-06-01N 1900-01-010000
VECLA08002000885LA081300                                                 BERCARES06VP05N831ABOA                    1983-01-011986-12-3104?0000155AV05707800001050000TRM5IDTO000000000000000000000000000000000000??????? ?010824000710001986-09-01?008385000550001983-01-01?0000000000000000001900-01-010000000000000000001900-01-0129G K NR 1900-01-01NR 1900-01-0111B6249 0000000000000N2022-06-01N 1900-01-010000
VECHO07007000886HO07EX 1800                                              CPECARES09VP05NAB52                       1983-01-011987-12-3104?0000183AV07710500001520000TRM5IDDO000000000000000000000000000000000000??????? ?015702001030001987-02-01?011739000770001983-01-01?0000000000000000001900-01-010000000000000000001900-01-0131J M NR 1900-01-01NR 1900-01-0113F8721 0000000000000N2022-06-01N 1900-01-010000
VECFI10030000887FI1045 FIRE                                              FTECARES06VU02N146AQ4AC                   1986-01-011989-12-3104?0999150AV03304500000800000TRM4SDTO000000000000000000000000000000000000??????? ?006573000431191989-03-01?005641000370001986-01-01?0000000000000000001900-01-010000000000000000001900-01-0126B G NR 1900-01-01NR 1900-01-0108A6435 0000000000000N2022-06-01N 1900-01-010000
VECFI10001000888FI1045                                                   BERCARES04VP05N146AA43A                   1983-01-011992-12-3104?0903140AV03304500000680000TRM4SDTN000000000000000000000000000000000000??????? ?007226000474001992-07-01?004878000320001983-01-01?0000000000000000001900-01-010000000000000000001900-01-0126B G NR 1900-01-01NR 1900-01-0108A6430 0000000000000N2022-06-01N 1900-01-010000
VECFI10010000889FI1045 ENERGY SAVING                                     BERCARES03VP05N146AB53A                   1983-01-011985-12-3104?0903140AV03304500000690000TRM5SDTO000000000000000000000000000000000000??????? ?006708000440001985-06-01?005946000390001983-01-01?0000000000000000001900-01-010000000000000000001900-01-0127C H NR 1900-01-01NR 1900-01-0109A6431 0000000000000N2022-06-01N 1900-01-010000
VECFI10012000890FI1055 SUPER                                             BERCARES04VP05N146AD55A                   1983-01-011985-12-3104?1116150AV04005500000880000TRM5SDTO000000000000000000000000000000000000??????? ?007013000460001985-06-01?005869000385001983-01-01?0000000000000000001900-01-010000000000000000001900-01-0127D H NR 1900-01-01NR 1900-01-0109A6432 0000000000000N2022-06-01N 1900-01-010000
VECFI10017000891FI1070 SUPER                                             BERCARES06VP05N146AE55A                   1983-01-011984-12-3104?1301165AV05207000001020000TRM5SDTO000000000000000000000000000000000000??????? ?007013000460001984-08-01?006555000430001983-01-01?0000000000000000001900-01-010000000000000000001900-01-0128D I NR 1900-01-01NR 1900-01-0110B6433 0000000000000N2022-06-01N 1900-01-010000
VECOP09025000892OP091200S L CARAVAN                                      BRKCARES06VP05NT8358A                     1983-01-011983-12-3104?0000150AV04406000000880000TRM4SDTO000000000000000000000000000000000000??????? ?007013000460001983-04-01?007013000460001983-01-01?0000000000000000001900-01-010000000000000000001900-01-0128E J NR 1900-01-01NR 1900-01-0110B2596 0000000000000N2022-06-01N 1900-01-010000
VECOP09026000893OP091300N BERLINA                                        BERCARES06VP05NT8478A                     1983-01-011983-12-3104?0000150AV04406000000940000TRM4IDTO000000000000000000000000000000000000??????? ?008232000540001983-04-01?008232000540001983-01-01?0000000000000000001900-01-010000000000000000001900-01-0128F J NR 1900-01-01NR 1900-01-0110B2596 0000000000000N2022-06-01N 1900-01-010000
VECOP09027000894OP091300N BERLINA VOYAGE                                 BRKCARES06VP05NT8378A                     1983-01-011983-12-3104?0000150AV04406000000940000TRM4SDTO000000000000000000000000000000000000??????? ?008994000590001983-04-01?008994000590001983-01-01?0000000000000000001900-01-010000000000000000001900-01-0128G K NR 1900-01-01NR 1900-01-0110B2596 0000000000000N2022-06-01N 1900-01-010000
VECOP09031000895OP091300N L CARAVAN                                      BRKCARES06VP05NT8378A                     1983-01-011983-12-3104?0000150AV04406000000940000TRM4SDTO000000000000000000000000000000000000??????? ?007775000510001983-04-01?007775000510001983-01-01?0000000000000000001900-01-010000000000000000001900-01-0128F J NR 1900-01-01NR 1900-01-0110B2596 0000000000000N2022-06-01N 1900-01-010000
VECOP09066000896OP091600D CARAVAN L                                      BRKINJGO04VP05NT83T4                      1983-01-011984-12-3104?0000145AV04005400000960000TRM5SDTO000000000000000000000000000000000000??????? ?009604000630001984-08-01?007775000510001983-01-01?0000000000000000001900-01-010000000000000000001900-01-0128G J NR 1900-01-01NR 1900-01-0110B3508 0000000000000N2022-06-01N 1900-01-010000
VECOP09064000897OP091600D BERLINA VOYAGE                                 BRKINJGO04VP05NT83T4                      1983-01-011984-12-3104?0000145AV04005400000960000TRM5SDTO000000000000000000000000000000000000??????? ?010824000710001984-08-01?010062000660001983-01-01?0000000000000000001900-01-010000000000000000001900-01-0128H J NR 1900-01-01NR 1900-01-0110B3508 0000000000000N2022-06-01N 1900-01-010000
VECOP12020000898OP122000E                                                CPEINJES10VP05NAVC8                       1984-01-011984-12-3104?0000180AV08511500000160000PRM4IDDO000000000000000000000000000000000000??????? ?015702001030001984-08-01?014483000950001984-01-01?0000000000000000001900-01-010000000000000000001900-01-0132K N NR 1900-01-01NR 1900-01-0114F3520 0000000000000N2022-06-01N 1900-01-010000
VECOP09063000899OP091600D BERLINA                                        BERINJGO04VP05NT84T443                    1983-01-011983-12-3104?1598145AV05507500000960000TRM5SDTO000000000000000000000000095014200000????N?? ?007318000480001983-04-01?007318000480001983-01-01?0000000000000000001900-01-010000000000000000001900-01-0127E I NR 1900-01-01NR 1900-01-0110B3508 0000000000000N2022-06-01N 1900-01-010000
VECOP09041000900OP091300S CARAVAN L                                      BRKCARES06VP05NT8390A                     1983-01-011983-12-3104?0000160AV05507500001010000TRM4SDTO000000000000000000000000000000000000??????? ?007318000480001983-04-01?007318000480001983-01-01?0000000000000000001900-01-010000000000000000001900-01-0129E J NR 1900-01-01NR 1900-01-0111B2597 0000000000000N2022-06-01N 1900-01-010000
VECOP09046000901OP091300S L                                              BERCARES06VP05NT8490A                     1983-01-011983-12-3104?0000160AV05507500001010000TRM4SDTO000000000000000000000000000000000000??????? ?006250000410001983-04-01?006250000410001983-01-01?0000000000000000001900-01-010000000000000000001900-01-0129D J NR 1900-01-01NR 1900-01-0111B2597 0000000000000N2022-06-01N 1900-01-010000
VECOP09054000902OP091600S BERLINA VOYAGE                                 BRKCARES06VP05NT8344                      1983-01-011983-12-3104?0000175AV06609000001260000TRM5SDTO000000000000000000000000000000000000??????? ?009299000610001983-01-01?009299000610001983-01-01?0000000000000000001900-01-010000000000000000001900-01-0130H K NR 1900-01-01NR 1900-01-0112B3506 0000000000000N2022-06-01N 1900-01-010000
VECOP09056000903OP091600S CARAVAN L                                      BRKCARES06VP05NT8344                      1983-01-011983-12-3104?0000175AV06609000001260000TRM5SDTO000000000000000000000000000000000000??????? ?007775000510001983-01-01?007775000510001983-01-01?0000000000000000001900-01-010000000000000000001900-01-0130F J NR 1900-01-01NR 1900-01-0112B3506 0000000000000N2022-06-01N 1900-01-010000
VECAN04025000904AN041300 VANDEN PLAS                                     BERCARES06VP05NXBRND                      1983-01-011984-12-3104?0000160AV05207000001020000TRM4IDTO000000000000000000000000000000000000??????? ?008537000560001984-10-01?007013000460001983-01-01?0000000000000000001900-01-010000000000000000001900-01-0128F J NR 1900-01-01NR 1900-01-0110B4082 0000000000000N2022-06-01N 1900-01-010000
VECDA03007000905DA031500 GL                                              BERCARES05VP05NRHN12L                     1983-01-011986-12-3104?0000155AV05507500001220000TRM5IDTO000000000000000000000000000000000000??????? ?009299000610001986-09-01?007470000490001983-01-01?0000000000000000001900-01-010000000000000000001900-01-0128F J NR 1900-01-01NR 1900-01-0110C9028 0000000000000N2022-06-01N 1900-01-010000
VECTA05017000906TA05GL                                                   BERCARES09VP05N62B383                     1983-01-011985-12-3104?0000160AV06609000001320000TRA3IDTO000000000000000000000000000000000000??????? ?010367000680001985-06-01?008080000530001983-01-01?0000000000000000001900-01-010000000000000000001900-01-0129G K NR 1900-01-01NR 1900-01-0111B0785 0000000000000N2022-06-01N 1900-01-010000
VECAU06049000907AU06D                                                    BERINJGO07VP05N44CN2                      1983-01-011989-12-3105?1986155AV05207000001220000TRM5SDTO000000000000000000000000125018000000????S?N ?019910001306001989-07-01?012348000810001983-01-01?0000000000000000001900-01-010000000000000000001900-01-0129L K NR 1900-01-01NR 1900-01-0112D2041 0000000000000N2022-06-01N 1900-01-010000
VECRE29056000908RE29GTD 4X4                                              BRKINJGO06VP05N135408                     1983-01-011983-12-3104?2068148NR049066000012900004DM5RDTO000000000000000000000000119016400000??????? ?013416000880001983-12-01?012501000820001983-01-01?0000000000000000001900-01-010000000000000000001900-01-0128K L NR 1900-01-01NR 1900-01-0112C1642 0000000000000N2022-06-01N 1900-01-010000
VECRE29055000909RE29GTL 4X4                                              BERCARES07VP05N135108                     1983-01-011983-12-3104?1648150NR054073000013300004DM5RDTO000000000000000000000000107014900000??????N ?011739000770001983-12-01?011129000730001983-01-01?0000000000000000001900-01-010000000000000000001900-01-0128J L NR 1900-01-01NR 1900-01-0111C1641 0000000000000N2022-06-01N 1900-01-010000
VECVW02010000910VW021303 S                                               BERCARES09VP04N13AD1                      1973-01-011975-12-3104?1584136AR03705000000100000PRM4IDTN000000000000000000000000000000000000????N?? ?002211000145001975-09-01?001663000109101973-01-01?0000000000000000001900-01-010000000000000000001900-01-0127A G NR 1900-01-01NR 1900-01-0109A2745 0000000000000N2022-06-01N 1900-01-010000
VECAR06003000911AR062L QUADRIFOGLIO                                      BERCARES08VP05N11655F                     1983-01-011983-12-3104?1962181AV09613000001810000PRM5RDDO000000000000000000000000114015650000????N?? ?012348000810001983-07-01?011586000760001983-01-01?0000000000000000001900-01-010000000000000000001900-01-0131J L NR 1900-01-01NR 1900-01-0114C6030 0000000000000N2022-06-01N 1900-01-010000
VECRE29061000912RE29GTX                                                  BRKCARES09VP05N135300                     1984-01-011984-12-3104?1995181AV07710400001630000TRM5SDTO000000000000000000000000114515950000??????? ?010824000710001984-01-01?010671000700001984-01-01?0000000000000000001900-01-010000000000000000001900-01-0131H K NR 1900-01-01NR 1900-01-0113C1644 0000000000000N2022-06-01N 1900-01-010000
